{
  "address": "0x3b070f69DeA86cb235845cd3CD6D93dB4eeF322e",
  "abi": [
    {
      "inputs": [
        {
          "internalType": "address",
          "name": "wToken_",
          "type": "address"
        }
      ],
      "stateMutability": "nonpayable",
      "type": "constructor"
    },
    {
      "inputs": [
        {
          "internalType": "uint256",
          "name": "sent",
          "type": "uint256"
        },
        {
          "internalType": "uint256",
          "name": "required",
          "type": "uint256"
        }
      ],
      "name": "InvalidValueSent",
      "type": "error"
    },
    {
      "inputs": [
        {
          "internalType": "address",
          "name": "recipient",
          "type": "address"
        },
        {
          "internalType": "address",
          "name": "gateway",
          "type": "address"
        }
      ],
      "name": "RecipientNotGateway",
      "type": "error"
    },
    {
      "inputs": [],
      "name": "ZeroRecipientAddress",
      "type": "error"
    },
    {
      "inputs": [
        {
          "internalType": "address",
          "name": "pool",
          "type": "address"
        },
        {
          "components": [
            {
              "components": [
                {
                  "internalType": "uint256[2]",
                  "name": "a",
                  "type": "uint256[2]"
                },
                {
                  "internalType": "uint256[2][2]",
                  "name": "b",
                  "type": "uint256[2][2]"
                },
                {
                  "internalType": "uint256[2]",
                  "name": "c",
                  "type": "uint256[2]"
                }
              ],
              "internalType": "struct Proof",
              "name": "proof",
              "type": "tuple"
            },
            {
              "internalType": "bytes32",
              "name": "commitment",
              "type": "bytes32"
            },
            {
              "internalType": "uint256",
              "name": "publicAmount",
              "type": "uint256"
            }
          ],
          "internalType": "struct CreateProofArgs",
          "name": "args",
          "type": "tuple"
        },
        {
          "components": [
            {
              "internalType": "bytes",
              "name": "encryptedDataSender",
              "type": "bytes"
            },
            {
              "internalType": "bytes",
              "name": "encryptedDataReceiver",
              "type": "bytes"
            }
          ],
          "internalType": "struct CreateData",
          "name": "data",
          "type": "tuple"
        }
      ],
      "name": "create",
      "outputs": [],
      "stateMutability": "payable",
      "type": "function"
    },
    {
      "inputs": [],
      "name": "wToken",
      "outputs": [
        {
          "internalType": "contract IWToken",
          "name": "",
          "type": "address"
        }
      ],
      "stateMutability": "view",
      "type": "function"
    },
    {
      "inputs": [
        {
          "internalType": "address",
          "name": "pool",
          "type": "address"
        },
        {
          "internalType": "address",
          "name": "unwrappedTokenReceiver",
          "type": "address"
        },
        {
          "components": [
            {
              "components": [
                {
                  "internalType": "uint256[2]",
                  "name": "a",
                  "type": "uint256[2]"
                },
                {
                  "internalType": "uint256[2][2]",
                  "name": "b",
                  "type": "uint256[2][2]"
                },
                {
                  "internalType": "uint256[2]",
                  "name": "c",
                  "type": "uint256[2]"
                }
              ],
              "internalType": "struct Proof",
              "name": "proof",
              "type": "tuple"
            },
            {
              "internalType": "uint256",
              "name": "currentTime",
              "type": "uint256"
            },
            {
              "internalType": "uint256",
              "name": "publicAmount",
              "type": "uint256"
            },
            {
              "internalType": "bytes32",
              "name": "streamRoot",
              "type": "bytes32"
            },
            {
              "internalType": "bytes32",
              "name": "checkpointRoot",
              "type": "bytes32"
            },
            {
              "internalType": "bytes32",
              "name": "inCheckpointNullifier",
              "type": "bytes32"
            },
            {
              "internalType": "bytes32",
              "name": "outCheckpointCommitment",
              "type": "bytes32"
            }
          ],
          "internalType": "struct CheckpointProofArgs",
          "name": "args",
          "type": "tuple"
        },
        {
          "components": [
            {
              "internalType": "address",
              "name": "recipient",
              "type": "address"
            },
            {
              "internalType": "uint256",
              "name": "withdrawAmount",
              "type": "uint256"
            },
            {
              "internalType": "address",
              "name": "relayer",
              "type": "address"
            },
            {
              "internalType": "uint256",
              "name": "fee",
              "type": "uint256"
            },
            {
              "internalType": "bytes",
              "name": "encryptedData",
              "type": "bytes"
            }
          ],
          "internalType": "struct ExtData",
          "name": "extData",
          "type": "tuple"
        }
      ],
      "name": "withdraw",
      "outputs": [],
      "stateMutability": "nonpayable",
      "type": "function"
    },
    {
      "stateMutability": "payable",
      "type": "receive"
    }
  ],
  "transactionHash": "0x66677d883b569eb89a34f9ac8a6d380add7bb2aea3493e46c1c4123623845036",
  "args": [
    "0x8D08ac9a511581C7e5BDf8CEd27b7353d0EB7e40"
  ],
  "numDeployments": 1,
  "solcInputHash": "68100c99fc1496735651412044663e73",
  "bytecode": "0x60a06040523480156200001157600080fd5b50604051620011ed380380620011ed8339818101604052810190620000379190620000dc565b8073ffffffffffffffffffffffffffffffffffffffff1660808173ffffffffffffffffffffffffffffffffffffffff1681525050506200010e565b600080fd5b600073ffffffffffffffffffffffffffffffffffffffff82169050919050565b6000620000a48262000077565b9050919050565b620000b68162000097565b8114620000c257600080fd5b50565b600081519050620000d681620000ab565b92915050565b600060208284031215620000f557620000f462000072565b5b60006200010584828501620000c5565b91505092915050565b6080516110a16200014c6000396000818160b6015281816101e601528181610222015281816102a501528181610391015261041201526110a16000f3fe6080604052600436106100385760003560e01c80630babd86414610044578063aef1ad0a1461006f578063c8db673b146100985761003f565b3661003f57005b600080fd5b34801561005057600080fd5b506100596100b4565b60405161006691906106a0565b60405180910390f35b34801561007b57600080fd5b5061009660048036038101906100919190610747565b6100d8565b005b6100b260048036038101906100ad919061080b565b61033f565b005b7f000000000000000000000000000000000000000000000000000000000000000081565b3073ffffffffffffffffffffffffffffffffffffffff16816000016020810190610102919061087c565b73ffffffffffffffffffffffffffffffffffffffff161461016e57806000016020810190610130919061087c565b306040517fb52905ef0000000000000000000000000000000000000000000000000000000081526004016101659291906108b8565b60405180910390fd5b8373ffffffffffffffffffffffffffffffffffffffff16634a674fc883836040518363ffffffff1660e01b81526004016101a9929190610d3b565b600060405180830381600087803b1580156101c357600080fd5b505af11580156101d7573d6000803e3d6000fd5b505050506000816020013590507f000000000000000000000000000000000000000000000000000000000000000073ffffffffffffffffffffffffffffffffffffffff1663095ea7b37f0000000000000000000000000000000000000000000000000000000000000000836040518363ffffffff1660e01b815260040161025f929190610d7c565b6020604051808303816000875af115801561027e573d6000803e3d6000fd5b505050506040513d601f19601f820116820180604052508101906102a29190610ddd565b507f000000000000000000000000000000000000000000000000000000000000000073ffffffffffffffffffffffffffffffffffffffff16632e1a7d4d826040518263ffffffff1660e01b81526004016102fc9190610e0a565b600060405180830381600087803b15801561031657600080fd5b505af115801561032a573d6000803e3d6000fd5b505050506103388482610521565b5050505050565b816101200135341461038f57348261012001356040517f71d5abb3000000000000000000000000000000000000000000000000000000008152600401610386929190610e25565b60405180910390fd5b7f000000000000000000000000000000000000000000000000000000000000000073ffffffffffffffffffffffffffffffffffffffff1663d0e30db0346040518263ffffffff1660e01b81526004016000604051808303818588803b1580156103f757600080fd5b505af115801561040b573d6000803e3d6000fd5b50505050507f000000000000000000000000000000000000000000000000000000000000000073ffffffffffffffffffffffffffffffffffffffff1663095ea7b384346040518363ffffffff1660e01b815260040161046b929190610d7c565b6020604051808303816000875af115801561048a573d6000803e3d6000fd5b505050506040513d601f19601f820116820180604052508101906104ae9190610ddd565b508273ffffffffffffffffffffffffffffffffffffffff16635d31109183836040518363ffffffff1660e01b81526004016104ea929190610f05565b600060405180830381600087803b15801561050457600080fd5b505af1158015610518573d6000803e3d6000fd5b50505050505050565b60008273ffffffffffffffffffffffffffffffffffffffff1682600067ffffffffffffffff81111561055657610555610f37565b5b6040519080825280601f01601f1916602001820160405280156105885781602001600182028036833780820191505090505b506040516105969190610fd7565b60006040518083038185875af1925050503d80600081146105d3576040519150601f19603f3d011682016040523d82523d6000602084013e6105d8565b606091505b505090508061061c576040517f08c379a00000000000000000000000000000000000000000000000000000000081526004016106139061104b565b60405180910390fd5b505050565b600073ffffffffffffffffffffffffffffffffffffffff82169050919050565b6000819050919050565b600061066661066161065c84610621565b610641565b610621565b9050919050565b60006106788261064b565b9050919050565b600061068a8261066d565b9050919050565b61069a8161067f565b82525050565b60006020820190506106b56000830184610691565b92915050565b600080fd5b600080fd5b60006106d082610621565b9050919050565b6106e0816106c5565b81146106eb57600080fd5b50565b6000813590506106fd816106d7565b92915050565b600080fd5b60006101c0828403121561071f5761071e610703565b5b81905092915050565b600060a0828403121561073e5761073d610703565b5b81905092915050565b6000806000806102208587031215610762576107616106bb565b5b6000610770878288016106ee565b9450506020610781878288016106ee565b935050604061079287828801610708565b92505061020085013567ffffffffffffffff8111156107b4576107b36106c0565b5b6107c087828801610728565b91505092959194509250565b600061014082840312156107e3576107e2610703565b5b81905092915050565b60006040828403121561080257610801610703565b5b81905092915050565b60008060006101808486031215610825576108246106bb565b5b6000610833868287016106ee565b9350506020610844868287016107cc565b92505061016084013567ffffffffffffffff811115610866576108656106c0565b5b610872868287016107ec565b9150509250925092565b600060208284031215610892576108916106bb565b5b60006108a0848285016106ee565b91505092915050565b6108b2816106c5565b82525050565b60006040820190506108cd60008301856108a9565b6108da60208301846108a9565b9392505050565b600082905092915050565b600082905092915050565b82818337505050565b61090c604083836108f7565b5050565b600082905092915050565b600060029050919050565b600081905092915050565b6000819050919050565b60006109478383610900565b60408301905092915050565b6000604082019050919050565b6109698161091b565b6109738184610926565b925061097e82610931565b8060005b838110156109b75761099482846108ec565b61099e878261093b565b96506109a983610953565b925050600181019050610982565b505050505050565b61010082016109d160008301836108ec565b6109de6000850182610900565b506109ec6040830183610910565b6109f96040850182610960565b50610a0760c08301836108ec565b610a1460c0850182610900565b50505050565b6000819050919050565b610a2d81610a1a565b8114610a3857600080fd5b50565b600081359050610a4a81610a24565b92915050565b6000610a5f6020840184610a3b565b905092915050565b610a7081610a1a565b82525050565b6000819050919050565b610a8981610a76565b8114610a9457600080fd5b50565b600081359050610aa681610a80565b92915050565b6000610abb6020840184610a97565b905092915050565b610acc81610a76565b82525050565b6101c08201610ae460008301836108e1565b610af160008501826109bf565b50610b00610100830183610a50565b610b0e610100850182610a67565b50610b1d610120830183610a50565b610b2b610120850182610a67565b50610b3a610140830183610aac565b610b48610140850182610ac3565b50610b57610160830183610aac565b610b65610160850182610ac3565b50610b74610180830183610aac565b610b82610180850182610ac3565b50610b916101a0830183610aac565b610b9f6101a0850182610ac3565b50505050565b6000610bb460208401846106ee565b905092915050565b610bc5816106c5565b82525050565b600080fd5b600080fd5b600080fd5b60008083356001602003843603038112610bf757610bf6610bd5565b5b83810192508235915060208301925067ffffffffffffffff821115610c1f57610c1e610bcb565b5b600182023603831315610c3557610c34610bd0565b5b509250929050565b600082825260208201905092915050565b82818337600083830152505050565b6000601f19601f8301169050919050565b6000610c7a8385610c3d565b9350610c87838584610c4e565b610c9083610c5d565b840190509392505050565b600060a08301610cae6000840184610ba5565b610cbb6000860182610bbc565b50610cc96020840184610a50565b610cd66020860182610a67565b50610ce46040840184610ba5565b610cf16040860182610bbc565b50610cff6060840184610a50565b610d0c6060860182610a67565b50610d1a6080840184610bda565b8583036080870152610d2d838284610c6e565b925050508091505092915050565b60006101e082019050610d516000830185610ad2565b8181036101c0830152610d648184610c9b565b90509392505050565b610d7681610a1a565b82525050565b6000604082019050610d9160008301856108a9565b610d9e6020830184610d6d565b9392505050565b60008115159050919050565b610dba81610da5565b8114610dc557600080fd5b50565b600081519050610dd781610db1565b92915050565b600060208284031215610df357610df26106bb565b5b6000610e0184828501610dc8565b91505092915050565b6000602082019050610e1f6000830184610d6d565b92915050565b6000604082019050610e3a6000830185610d6d565b610e476020830184610d6d565b9392505050565b6101408201610e6060008301836108e1565b610e6d60008501826109bf565b50610e7c610100830183610aac565b610e8a610100850182610ac3565b50610e99610120830183610a50565b610ea7610120850182610a67565b50505050565b600060408301610ec06000840184610bda565b8583036000870152610ed3838284610c6e565b92505050610ee46020840184610bda565b8583036020870152610ef7838284610c6e565b925050508091505092915050565b600061016082019050610f1b6000830185610e4e565b818103610140830152610f2e8184610ead565b90509392505050565b7f4e487b7100000000000000000000000000000000000000000000000000000000600052604160045260246000fd5b600081519050919050565b600081905092915050565b60005b83811015610f9a578082015181840152602081019050610f7f565b60008484015250505050565b6000610fb182610f66565b610fbb8185610f71565b9350610fcb818560208601610f7c565b80840191505092915050565b6000610fe38284610fa6565b915081905092915050565b600082825260208201905092915050565b7f4554485f5452414e534645525f4641494c454400000000000000000000000000600082015250565b6000611035601383610fee565b915061104082610fff565b602082019050919050565b6000602082019050818103600083015261106481611028565b905091905056fea26469706673582212201d864e723652206b0d45d106093fdccab6000538b67c529dcfe1f9b9d031113d64736f6c63430008130033",
  "devdoc": {
    "kind": "dev",
    "methods": {},
    "version": 1
  },
  "userdoc": {
    "kind": "user",
    "methods": {},
    "version": 1
  },
  "storageLayout": {
    "storage": [],
    "types": null
  }
}