{
  "address": "0x382566295077ca482Dc5d05f44Ee1B98a5C7E663",
  "abi": [
    {
      "inputs": [
        {
          "internalType": "uint256[2]",
          "name": "a",
          "type": "uint256[2]"
        },
        {
          "internalType": "uint256[2][2]",
          "name": "b",
          "type": "uint256[2][2]"
        },
        {
          "internalType": "uint256[2]",
          "name": "c",
          "type": "uint256[2]"
        },
        {
          "internalType": "uint256[6]",
          "name": "input",
          "type": "uint256[6]"
        }
      ],
      "name": "verifyProof",
      "outputs": [
        {
          "internalType": "bool",
          "name": "r",
          "type": "bool"
        }
      ],
      "stateMutability": "view",
      "type": "function"
    }
  ],
  "transactionHash": "0x530dce127ece3bad417538a393981912b657a9a70d3f360482b301d60bdb25a7",
  "args": [],
  "numDeployments": 2,
  "solcInputHash": "bafeffd2cd5059608cd5f6bd545d351d",
  "bytecode": "0x608060405234801561001057600080fd5b5061150e806100206000396000f3fe608060405234801561001057600080fd5b506004361061002b5760003560e01c8063f398789b14610030575b600080fd5b61018f60048036036101c081101561004757600080fd5b8101908080604001906002806020026040519081016040528092919082600260200280828437600081840152601f19601f82011690508083019250505050505091929192908060800190600280602002604051908101604052809291906000905b828210156100fc578382604002016002806020026040519081016040528092919082600260200280828437600081840152601f19601f820116905080830192505050505050815260200190600101906100a8565b50505050919291929080604001906002806020026040519081016040528092919082600260200280828437600081840152601f19601f82011690508083019250505050505091929192908060c001906006806020026040519081016040528092919082600660200280828437600081840152601f19601f82011690508083019250505050505091929192905050506101a9565b604051808215151515815260200191505060405180910390f35b60006101b3611396565b6040518060400160405280876000600281106101cb57fe5b60200201518152602001876001600281106101e257fe5b60200201518152508160000181905250604051806040016040528060405180604001604052808860006002811061021557fe5b602002015160006002811061022657fe5b602002015181526020018860006002811061023d57fe5b602002015160016002811061024e57fe5b6020020151815250815260200160405180604001604052808860016002811061027357fe5b602002015160006002811061028457fe5b602002015181526020018860016002811061029b57fe5b60200201516001600281106102ac57fe5b602002015181525081525081602001819052506040518060400160405280856000600281106102d757fe5b60200201518152602001856001600281106102ee57fe5b602002015181525081604001819052506060600667ffffffffffffffff8111801561031857600080fd5b506040519080825280602002602001820160405280156103475781602001602082028036833780820191505090505b50905060008090505b600681101561038f5784816006811061036557fe5b602002015182828151811061037657fe5b6020026020010181815250508080600101915050610350565b50600061039c82846103bc565b14156103ad576001925050506103b4565b6000925050505b949350505050565b6000807f30644e72e131a029b85045b68181585d2833e84879b9709143e1f593f000000190506103ea6113c9565b6103f26105f0565b9050806080015151600186510114610472576040517f08c379a00000000000000000000000000000000000000000000000000000000081526004018080602001828103825260128152602001807f76657269666965722d6261642d696e707574000000000000000000000000000081525060200191505060405180910390fd5b61047a611410565b6040518060400160405280600081526020016000815250905060008090505b865181101561057957838782815181106104af57fe5b60200260200101511061052a576040517f08c379a000000000000000000000000000000000000000000000000000000000815260040180806020018281038252601f8152602001807f76657269666965722d6774652d736e61726b2d7363616c61722d6669656c640081525060200191505060405180910390fd5b61056a826105658560800151600185018151811061054457fe5b60200260200101518a858151811061055857fe5b6020026020010151610c19565b610d14565b91508080600101915050610499565b5061059c81836080015160008151811061058f57fe5b6020026020010151610d14565b90506105d26105ae8660000151610e2e565b8660200151846000015185602001518587604001518b604001518960600151610ec8565b6105e257600193505050506105ea565b600093505050505b92915050565b6105f86113c9565b60405180604001604052807f2d4d9aa7e302d9df41749d5507949d05dbea33fbb16c643b22f599a2be6df2e281526020017f14bedd503c37ceb061d8ec60209fe345ce89830a19230301f076caff004d19268152508160000181905250604051806040016040528060405180604001604052807f0967032fcbf776d1afc985f88877f182d38480a653f2decaa9794cbc3bf3060c81526020017f0e187847ad4c798374d0d6732bf501847dd68bc0e071241e0213bc7fc13db7ab815250815260200160405180604001604052807f304cfbd1e08a704a99f5e847d93f8c3caafddec46b7a0d379da69a4d112346a781526020017f1739c1b1a457a8c7313123d24d2f9192f896b7c63eea05a9d57f06547ad0cec88152508152508160200181905250604051806040016040528060405180604001604052807f198e9393920d483a7260bfb731fb5d25f1aa493335a9e71297e485b7aef312c281526020017f1800deef121f1e76426a00665e5c4479674322d4f75edadd46debd5cd992f6ed815250815260200160405180604001604052807f090689d0585ff075ec9e99ad690c3395bc4b313370b38ef355acdadcd122975b81526020017f12c85ea5db8c6deb4aab71808dcb408fe3d1e7690c43d37b4ce6cc0166fa7daa8152508152508160400181905250604051806040016040528060405180604001604052807f0c7cb08ffd1862a0cbaa11d48b890d31926d617e273dd8d3a333639e14b6546581526020017f1937511dec89228975477b218de32d79abd5128b4d885a7591f398b497b67a36815250815260200160405180604001604052807f2d21fd24b3d0f30dad918dc078f035dcd0a287ce7c9f039ae41341534b6b155181526020017f05186e6e23a45c776aa44b8540e89699b6364f59128f67b4f2ed4dc120c43c218152508152508160600181905250600767ffffffffffffffff811180156108bc57600080fd5b506040519080825280602002602001820160405280156108f657816020015b6108e3611410565b8152602001906001900390816108db5790505b50816080018190525060405180604001604052807f01a6ad68d24a96a31dde8fc866d0948fcec0ee3dfcc6774890e7bfe9b3e0487181526020017f2c5dde82c2c111ec269f36b559bc199c3081ca1779dd583de37bae29d13d2020815250816080015160008151811061096557fe5b602002602001018190525060405180604001604052807f07b3b80e962962652e29eba84aaa82e878104c9f9e3aaaf87ee4588acf107d1981526020017f131bcb356e6ac9fe64a43765dab4d026e0789a2f4b6b5b2ab2e2720b0fb5057981525081608001516001815181106109d657fe5b602002602001018190525060405180604001604052807f2a6ef9f2a511586e75f4a8f70a4691b8ce72299c82ca61d6ab6b78f7fa1b187b81526020017f1b1656c43d2f5e2e3ed28d8bada7ef7f61182e145db53fdbb3bd4f6dbece8c0b8152508160800151600281518110610a4757fe5b602002602001018190525060405180604001604052807f2ab28470ab97c17612e5755427c028cbcc0e8b0afd45f891bdbb2323eee360e581526020017f2142379d4da4ec020bc2600f2c84986ad4a5bfd10ef53de29841329f310f268d8152508160800151600381518110610ab857fe5b602002602001018190525060405180604001604052807f242648b7741309fc06e8f23919c81132a982c88ae90b675e3f4f34810164ae9781526020017f1aed80f58c00e5190905f8cc9d3c99a7f1fb37a2f5407cd368eed4f589a6104e8152508160800151600481518110610b2957fe5b602002602001018190525060405180604001604052807f11b19800e98d180cb7a25d4d370829e9d28e82b6446b3e1a6baf9e6fe7e6177d81526020017f0f2f9abdbe8854834ac530859d81cf7ea277e58e0c9ef318982f2a49227a2d9d8152508160800151600581518110610b9a57fe5b602002602001018190525060405180604001604052807f059bdb340eaefc239bfa9b06ef7bfbe608106e6193bbc0e19d3308482769ce9681526020017f08819b5c89464af29fd00fe3d59379bc704f8056af61a76f08ebc5ee051d02228152508160800151600681518110610c0b57fe5b602002602001018190525090565b610c21611410565b610c2961142a565b836000015181600060038110610c3b57fe5b602002018181525050836020015181600160038110610c5657fe5b6020020181815250508281600260038110610c6d57fe5b602002018181525050600060608360808460076107d05a03fa90508060008114610c9657610c98565bfe5b5080610d0c576040517f08c379a00000000000000000000000000000000000000000000000000000000081526004018080602001828103825260128152602001807f70616972696e672d6d756c2d6661696c6564000000000000000000000000000081525060200191505060405180910390fd5b505092915050565b610d1c611410565b610d2461144c565b836000015181600060048110610d3657fe5b602002018181525050836020015181600160048110610d5157fe5b602002018181525050826000015181600260048110610d6c57fe5b602002018181525050826020015181600360048110610d8757fe5b602002018181525050600060608360c08460066107d05a03fa90508060008114610db057610db2565bfe5b5080610e26576040517f08c379a00000000000000000000000000000000000000000000000000000000081526004018080602001828103825260128152602001807f70616972696e672d6164642d6661696c6564000000000000000000000000000081525060200191505060405180910390fd5b505092915050565b610e36611410565b60007f30644e72e131a029b85045b68181585d97816a916871ca8d3c208c16d87cfd47905060008360000151148015610e73575060008360200151145b15610e97576040518060400160405280600081526020016000815250915050610ec3565b60405180604001604052808460000151815260200182856020015181610eb957fe5b0683038152509150505b919050565b60006060600467ffffffffffffffff81118015610ee457600080fd5b50604051908082528060200260200182016040528015610f1e57816020015b610f0b611410565b815260200190600190039081610f035790505b5090506060600467ffffffffffffffff81118015610f3b57600080fd5b50604051908082528060200260200182016040528015610f7557816020015b610f6261146e565b815260200190600190039081610f5a5790505b5090508a82600081518110610f8657fe5b60200260200101819052508882600181518110610f9f57fe5b60200260200101819052508682600281518110610fb857fe5b60200260200101819052508482600381518110610fd157fe5b60200260200101819052508981600081518110610fea57fe5b6020026020010181905250878160018151811061100357fe5b6020026020010181905250858160028151811061101c57fe5b6020026020010181905250838160038151811061103557fe5b602002602001018190525061104a828261105a565b9250505098975050505050505050565b600081518351146110d3576040517f08c379a00000000000000000000000000000000000000000000000000000000081526004018080602001828103825260168152602001807f70616972696e672d6c656e677468732d6661696c65640000000000000000000081525060200191505060405180910390fd5b600083519050600060068202905060608167ffffffffffffffff811180156110fa57600080fd5b506040519080825280602002602001820160405280156111295781602001602082028036833780820191505090505b50905060008090505b838110156112cf5786818151811061114657fe5b60200260200101516000015182600060068402018151811061116457fe5b60200260200101818152505086818151811061117c57fe5b60200260200101516020015182600160068402018151811061119a57fe5b6020026020010181815250508581815181106111b257fe5b6020026020010151600001516000600281106111ca57fe5b60200201518260026006840201815181106111e157fe5b6020026020010181815250508581815181106111f957fe5b60200260200101516000015160016002811061121157fe5b602002015182600360068402018151811061122857fe5b60200260200101818152505085818151811061124057fe5b60200260200101516020015160006002811061125857fe5b602002015182600460068402018151811061126f57fe5b60200260200101818152505085818151811061128757fe5b60200260200101516020015160016002811061129f57fe5b60200201518260056006840201815181106112b657fe5b6020026020010181815250508080600101915050611132565b506112d8611494565b6000602082602086026020860160086107d05a03fa905080600081146112fd576112ff565bfe5b5080611373576040517f08c379a00000000000000000000000000000000000000000000000000000000081526004018080602001828103825260158152602001807f70616972696e672d6f70636f64652d6661696c6564000000000000000000000081525060200191505060405180910390fd5b60008260006001811061138257fe5b602002015114159550505050505092915050565b60405180606001604052806113a9611410565b81526020016113b661146e565b81526020016113c3611410565b81525090565b6040518060a001604052806113dc611410565b81526020016113e961146e565b81526020016113f661146e565b815260200161140361146e565b8152602001606081525090565b604051806040016040528060008152602001600081525090565b6040518060600160405280600390602082028036833780820191505090505090565b6040518060800160405280600490602082028036833780820191505090505090565b60405180604001604052806114816114b6565b815260200161148e6114b6565b81525090565b6040518060200160405280600190602082028036833780820191505090505090565b604051806040016040528060029060208202803683378082019150509050509056fea2646970667358221220a7de49992d56492ea59652d9c4a8d16e9b2303363433bb7e351544506cc929ff64736f6c634300060b0033",
  "devdoc": {
    "kind": "dev",
    "methods": {
      "verifyProof(uint256[2],uint256[2][2],uint256[2],uint256[6])": {
        "returns": {
          "r": " bool true if proof is valid"
        }
      }
    },
    "version": 1
  },
  "userdoc": {
    "kind": "user",
    "methods": {},
    "version": 1
  },
  "storageLayout": {
    "storage": [],
    "types": null
  }
}