{
  "address": "0x0F3aE2a8AFA1c7e2c5069aA90169063aEd4516FE",
  "abi": [
    {
      "inputs": [
        {
          "internalType": "uint32",
          "name": "numLevels_",
          "type": "uint32"
        },
        {
          "internalType": "uint256",
          "name": "maxDepositAmount_",
          "type": "uint256"
        },
        {
          "internalType": "contract IWETH",
          "name": "token_",
          "type": "address"
        },
        {
          "internalType": "address",
          "name": "hasher_",
          "type": "address"
        },
        {
          "internalType": "contract IVerifier",
          "name": "createVerifier_",
          "type": "address"
        },
        {
          "internalType": "contract IVerifier",
          "name": "withdrawVerifier_",
          "type": "address"
        },
        {
          "internalType": "contract IVerifier",
          "name": "revokeVerifier_",
          "type": "address"
        }
      ],
      "stateMutability": "nonpayable",
      "type": "constructor"
    },
    {
      "anonymous": false,
      "inputs": [
        {
          "indexed": false,
          "internalType": "bytes32",
          "name": "commitment",
          "type": "bytes32"
        },
        {
          "indexed": false,
          "internalType": "uint256",
          "name": "index",
          "type": "uint256"
        },
        {
          "indexed": false,
          "internalType": "bytes",
          "name": "encryptedOutput",
          "type": "bytes"
        }
      ],
      "name": "NewCommitment",
      "type": "event"
    },
    {
      "anonymous": false,
      "inputs": [
        {
          "indexed": false,
          "internalType": "bytes32",
          "name": "nullifier",
          "type": "bytes32"
        }
      ],
      "name": "NewNullifier",
      "type": "event"
    },
    {
      "inputs": [],
      "name": "FIELD_SIZE",
      "outputs": [
        {
          "internalType": "uint256",
          "name": "",
          "type": "uint256"
        }
      ],
      "stateMutability": "view",
      "type": "function"
    },
    {
      "inputs": [],
      "name": "MAX_EXT_AMOUNT",
      "outputs": [
        {
          "internalType": "uint256",
          "name": "",
          "type": "uint256"
        }
      ],
      "stateMutability": "view",
      "type": "function"
    },
    {
      "inputs": [],
      "name": "MAX_FEE",
      "outputs": [
        {
          "internalType": "uint256",
          "name": "",
          "type": "uint256"
        }
      ],
      "stateMutability": "view",
      "type": "function"
    },
    {
      "inputs": [],
      "name": "MIN_EXT_AMOUNT_LIMIT",
      "outputs": [
        {
          "internalType": "uint256",
          "name": "",
          "type": "uint256"
        }
      ],
      "stateMutability": "view",
      "type": "function"
    },
    {
      "inputs": [],
      "name": "ROOT_HISTORY_SIZE",
      "outputs": [
        {
          "internalType": "uint32",
          "name": "",
          "type": "uint32"
        }
      ],
      "stateMutability": "view",
      "type": "function"
    },
    {
      "inputs": [],
      "name": "ZERO_VALUE",
      "outputs": [
        {
          "internalType": "uint256",
          "name": "",
          "type": "uint256"
        }
      ],
      "stateMutability": "view",
      "type": "function"
    },
    {
      "inputs": [
        {
          "internalType": "uint256",
          "name": "withdrawAmount",
          "type": "uint256"
        },
        {
          "internalType": "uint256",
          "name": "fee",
          "type": "uint256"
        }
      ],
      "name": "calculatePublicAmount",
      "outputs": [
        {
          "internalType": "uint256",
          "name": "",
          "type": "uint256"
        }
      ],
      "stateMutability": "pure",
      "type": "function"
    },
    {
      "inputs": [
        {
          "components": [
            {
              "components": [
                {
                  "internalType": "uint256[2]",
                  "name": "a",
                  "type": "uint256[2]"
                },
                {
                  "internalType": "uint256[2][2]",
                  "name": "b",
                  "type": "uint256[2][2]"
                },
                {
                  "internalType": "uint256[2]",
                  "name": "c",
                  "type": "uint256[2]"
                }
              ],
              "internalType": "struct Tsunami.Proof",
              "name": "proof",
              "type": "tuple"
            },
            {
              "internalType": "uint256",
              "name": "amount",
              "type": "uint256"
            },
            {
              "internalType": "bytes32",
              "name": "commitment",
              "type": "bytes32"
            }
          ],
          "internalType": "struct Tsunami.ProposalProofArgs",
          "name": "args",
          "type": "tuple"
        },
        {
          "internalType": "bytes",
          "name": "encryptedOutput",
          "type": "bytes"
        }
      ],
      "name": "create",
      "outputs": [],
      "stateMutability": "payable",
      "type": "function"
    },
    {
      "inputs": [],
      "name": "createVerifier",
      "outputs": [
        {
          "internalType": "contract IVerifier",
          "name": "",
          "type": "address"
        }
      ],
      "stateMutability": "view",
      "type": "function"
    },
    {
      "inputs": [],
      "name": "currentRootIndex",
      "outputs": [
        {
          "internalType": "uint32",
          "name": "",
          "type": "uint32"
        }
      ],
      "stateMutability": "view",
      "type": "function"
    },
    {
      "inputs": [
        {
          "internalType": "uint256",
          "name": "",
          "type": "uint256"
        }
      ],
      "name": "filledSubtrees",
      "outputs": [
        {
          "internalType": "bytes32",
          "name": "",
          "type": "bytes32"
        }
      ],
      "stateMutability": "view",
      "type": "function"
    },
    {
      "inputs": [],
      "name": "getLastRoot",
      "outputs": [
        {
          "internalType": "bytes32",
          "name": "",
          "type": "bytes32"
        }
      ],
      "stateMutability": "view",
      "type": "function"
    },
    {
      "inputs": [
        {
          "internalType": "bytes32",
          "name": "left",
          "type": "bytes32"
        },
        {
          "internalType": "bytes32",
          "name": "right",
          "type": "bytes32"
        }
      ],
      "name": "hashLeftRight",
      "outputs": [
        {
          "internalType": "bytes32",
          "name": "",
          "type": "bytes32"
        }
      ],
      "stateMutability": "view",
      "type": "function"
    },
    {
      "inputs": [],
      "name": "hasher",
      "outputs": [
        {
          "internalType": "contract IHasher",
          "name": "",
          "type": "address"
        }
      ],
      "stateMutability": "view",
      "type": "function"
    },
    {
      "inputs": [
        {
          "internalType": "bytes32",
          "name": "root",
          "type": "bytes32"
        }
      ],
      "name": "isKnownRoot",
      "outputs": [
        {
          "internalType": "bool",
          "name": "",
          "type": "bool"
        }
      ],
      "stateMutability": "view",
      "type": "function"
    },
    {
      "inputs": [
        {
          "internalType": "bytes32",
          "name": "nullifierHash",
          "type": "bytes32"
        }
      ],
      "name": "isSpent",
      "outputs": [
        {
          "internalType": "bool",
          "name": "",
          "type": "bool"
        }
      ],
      "stateMutability": "view",
      "type": "function"
    },
    {
      "inputs": [],
      "name": "maxDepositAmount",
      "outputs": [
        {
          "internalType": "uint256",
          "name": "",
          "type": "uint256"
        }
      ],
      "stateMutability": "view",
      "type": "function"
    },
    {
      "inputs": [],
      "name": "nextIndex",
      "outputs": [
        {
          "internalType": "uint32",
          "name": "",
          "type": "uint32"
        }
      ],
      "stateMutability": "view",
      "type": "function"
    },
    {
      "inputs": [
        {
          "internalType": "bytes32",
          "name": "",
          "type": "bytes32"
        }
      ],
      "name": "nullifierHashes",
      "outputs": [
        {
          "internalType": "bool",
          "name": "",
          "type": "bool"
        }
      ],
      "stateMutability": "view",
      "type": "function"
    },
    {
      "inputs": [],
      "name": "numLevels",
      "outputs": [
        {
          "internalType": "uint256",
          "name": "",
          "type": "uint256"
        }
      ],
      "stateMutability": "view",
      "type": "function"
    },
    {
      "inputs": [
        {
          "components": [
            {
              "components": [
                {
                  "internalType": "uint256[2]",
                  "name": "a",
                  "type": "uint256[2]"
                },
                {
                  "internalType": "uint256[2][2]",
                  "name": "b",
                  "type": "uint256[2][2]"
                },
                {
                  "internalType": "uint256[2]",
                  "name": "c",
                  "type": "uint256[2]"
                }
              ],
              "internalType": "struct Tsunami.Proof",
              "name": "proof",
              "type": "tuple"
            },
            {
              "internalType": "bytes32",
              "name": "root",
              "type": "bytes32"
            },
            {
              "internalType": "bytes32",
              "name": "inputNullifier",
              "type": "bytes32"
            },
            {
              "internalType": "bytes32",
              "name": "outputCommitment",
              "type": "bytes32"
            },
            {
              "internalType": "bytes32",
              "name": "extDataHash",
              "type": "bytes32"
            },
            {
              "internalType": "uint256",
              "name": "publicAmount",
              "type": "uint256"
            },
            {
              "internalType": "uint256",
              "name": "stopTime",
              "type": "uint256"
            }
          ],
          "internalType": "struct Tsunami.RevokeProofArgs",
          "name": "args",
          "type": "tuple"
        },
        {
          "components": [
            {
              "internalType": "address",
              "name": "recipient",
              "type": "address"
            },
            {
              "internalType": "uint256",
              "name": "withdrawAmount",
              "type": "uint256"
            },
            {
              "internalType": "address",
              "name": "relayer",
              "type": "address"
            },
            {
              "internalType": "uint256",
              "name": "fee",
              "type": "uint256"
            },
            {
              "internalType": "bytes",
              "name": "encryptedOutput",
              "type": "bytes"
            }
          ],
          "internalType": "struct Tsunami.ExtData",
          "name": "extData",
          "type": "tuple"
        }
      ],
      "name": "revoke",
      "outputs": [],
      "stateMutability": "nonpayable",
      "type": "function"
    },
    {
      "inputs": [],
      "name": "revokeVerifier",
      "outputs": [
        {
          "internalType": "contract IVerifier",
          "name": "",
          "type": "address"
        }
      ],
      "stateMutability": "view",
      "type": "function"
    },
    {
      "inputs": [
        {
          "internalType": "uint256",
          "name": "",
          "type": "uint256"
        }
      ],
      "name": "roots",
      "outputs": [
        {
          "internalType": "bytes32",
          "name": "",
          "type": "bytes32"
        }
      ],
      "stateMutability": "view",
      "type": "function"
    },
    {
      "inputs": [],
      "name": "token",
      "outputs": [
        {
          "internalType": "contract IWETH",
          "name": "",
          "type": "address"
        }
      ],
      "stateMutability": "view",
      "type": "function"
    },
    {
      "inputs": [
        {
          "components": [
            {
              "components": [
                {
                  "internalType": "uint256[2]",
                  "name": "a",
                  "type": "uint256[2]"
                },
                {
                  "internalType": "uint256[2][2]",
                  "name": "b",
                  "type": "uint256[2][2]"
                },
                {
                  "internalType": "uint256[2]",
                  "name": "c",
                  "type": "uint256[2]"
                }
              ],
              "internalType": "struct Tsunami.Proof",
              "name": "proof",
              "type": "tuple"
            },
            {
              "internalType": "uint256",
              "name": "amount",
              "type": "uint256"
            },
            {
              "internalType": "bytes32",
              "name": "commitment",
              "type": "bytes32"
            }
          ],
          "internalType": "struct Tsunami.ProposalProofArgs",
          "name": "args",
          "type": "tuple"
        }
      ],
      "name": "verifyProposalProof",
      "outputs": [
        {
          "internalType": "bool",
          "name": "",
          "type": "bool"
        }
      ],
      "stateMutability": "view",
      "type": "function"
    },
    {
      "inputs": [
        {
          "components": [
            {
              "components": [
                {
                  "internalType": "uint256[2]",
                  "name": "a",
                  "type": "uint256[2]"
                },
                {
                  "internalType": "uint256[2][2]",
                  "name": "b",
                  "type": "uint256[2][2]"
                },
                {
                  "internalType": "uint256[2]",
                  "name": "c",
                  "type": "uint256[2]"
                }
              ],
              "internalType": "struct Tsunami.Proof",
              "name": "proof",
              "type": "tuple"
            },
            {
              "internalType": "bytes32",
              "name": "root",
              "type": "bytes32"
            },
            {
              "internalType": "bytes32",
              "name": "inputNullifier",
              "type": "bytes32"
            },
            {
              "internalType": "bytes32",
              "name": "outputCommitment",
              "type": "bytes32"
            },
            {
              "internalType": "bytes32",
              "name": "extDataHash",
              "type": "bytes32"
            },
            {
              "internalType": "uint256",
              "name": "publicAmount",
              "type": "uint256"
            },
            {
              "internalType": "uint256",
              "name": "stopTime",
              "type": "uint256"
            }
          ],
          "internalType": "struct Tsunami.RevokeProofArgs",
          "name": "args",
          "type": "tuple"
        }
      ],
      "name": "verifyRevokeProof",
      "outputs": [
        {
          "internalType": "bool",
          "name": "",
          "type": "bool"
        }
      ],
      "stateMutability": "view",
      "type": "function"
    },
    {
      "inputs": [
        {
          "components": [
            {
              "components": [
                {
                  "internalType": "uint256[2]",
                  "name": "a",
                  "type": "uint256[2]"
                },
                {
                  "internalType": "uint256[2][2]",
                  "name": "b",
                  "type": "uint256[2][2]"
                },
                {
                  "internalType": "uint256[2]",
                  "name": "c",
                  "type": "uint256[2]"
                }
              ],
              "internalType": "struct Tsunami.Proof",
              "name": "proof",
              "type": "tuple"
            },
            {
              "internalType": "bytes32",
              "name": "root",
              "type": "bytes32"
            },
            {
              "internalType": "bytes32",
              "name": "inputNullifier",
              "type": "bytes32"
            },
            {
              "internalType": "bytes32",
              "name": "outputCommitment",
              "type": "bytes32"
            },
            {
              "internalType": "bytes32",
              "name": "extDataHash",
              "type": "bytes32"
            },
            {
              "internalType": "uint256",
              "name": "publicAmount",
              "type": "uint256"
            },
            {
              "internalType": "uint256",
              "name": "checkpointTime",
              "type": "uint256"
            }
          ],
          "internalType": "struct Tsunami.WithdrawProofArgs",
          "name": "args",
          "type": "tuple"
        }
      ],
      "name": "verifyWithdrawProof",
      "outputs": [
        {
          "internalType": "bool",
          "name": "",
          "type": "bool"
        }
      ],
      "stateMutability": "view",
      "type": "function"
    },
    {
      "inputs": [
        {
          "components": [
            {
              "components": [
                {
                  "internalType": "uint256[2]",
                  "name": "a",
                  "type": "uint256[2]"
                },
                {
                  "internalType": "uint256[2][2]",
                  "name": "b",
                  "type": "uint256[2][2]"
                },
                {
                  "internalType": "uint256[2]",
                  "name": "c",
                  "type": "uint256[2]"
                }
              ],
              "internalType": "struct Tsunami.Proof",
              "name": "proof",
              "type": "tuple"
            },
            {
              "internalType": "bytes32",
              "name": "root",
              "type": "bytes32"
            },
            {
              "internalType": "bytes32",
              "name": "inputNullifier",
              "type": "bytes32"
            },
            {
              "internalType": "bytes32",
              "name": "outputCommitment",
              "type": "bytes32"
            },
            {
              "internalType": "bytes32",
              "name": "extDataHash",
              "type": "bytes32"
            },
            {
              "internalType": "uint256",
              "name": "publicAmount",
              "type": "uint256"
            },
            {
              "internalType": "uint256",
              "name": "checkpointTime",
              "type": "uint256"
            }
          ],
          "internalType": "struct Tsunami.WithdrawProofArgs",
          "name": "args",
          "type": "tuple"
        },
        {
          "components": [
            {
              "internalType": "address",
              "name": "recipient",
              "type": "address"
            },
            {
              "internalType": "uint256",
              "name": "withdrawAmount",
              "type": "uint256"
            },
            {
              "internalType": "address",
              "name": "relayer",
              "type": "address"
            },
            {
              "internalType": "uint256",
              "name": "fee",
              "type": "uint256"
            },
            {
              "internalType": "bytes",
              "name": "encryptedOutput",
              "type": "bytes"
            }
          ],
          "internalType": "struct Tsunami.ExtData",
          "name": "extData",
          "type": "tuple"
        }
      ],
      "name": "withdraw",
      "outputs": [],
      "stateMutability": "nonpayable",
      "type": "function"
    },
    {
      "inputs": [],
      "name": "withdrawVerifier",
      "outputs": [
        {
          "internalType": "contract IVerifier",
          "name": "",
          "type": "address"
        }
      ],
      "stateMutability": "view",
      "type": "function"
    },
    {
      "inputs": [
        {
          "internalType": "uint256",
          "name": "i",
          "type": "uint256"
        }
      ],
      "name": "zeros",
      "outputs": [
        {
          "internalType": "bytes32",
          "name": "",
          "type": "bytes32"
        }
      ],
      "stateMutability": "pure",
      "type": "function"
    },
    {
      "stateMutability": "payable",
      "type": "receive"
    }
  ],
  "transactionHash": "0xd254ead728cfac6624e35b3da773fb12a19697e940cfc742aee37029d6089179",
  "args": [
    20,
    "1000000000000000000",
    "0xfbe7a8FFD4EcB1678152bafb4915F1e5869178b0",
    "0x8d70862362d359cd2e2144719E441bAbc5F74583",
    "0x89104171bC1f81389cEca7099204F73d31D320de",
    "0xC5A663C188E4B4C42f9Ae1142E9A713271E2b04F",
    "0x77d258F9dD249ee04cBf68A7aC96F4054A716979"
  ],
  "numDeployments": 1,
  "solcInputHash": "3d145e31feb5e5905eda0054e1be1afa",
  "bytecode": "0x6101406040523480156200001257600080fd5b5060405162004d4538038062004d45833981810160405281019062000038919062000af5565b8663ffffffff16846000821162000086576040517f08c379a00000000000000000000000000000000000000000000000000000000081526004016200007d9062000c2f565b60405180910390fd5b60208210620000cc576040517f08c379a0000000000000000000000000000000000000000000000000000000008152600401620000c39062000ca1565b60405180910390fd5b8160a081815250508073ffffffffffffffffffffffffffffffffffffffff1660808173ffffffffffffffffffffffffffffffffffffffff168152505060005b60a051811015620001535762000127816200026e60201b60201c565b6000808381526020019081526020016000208190555080806200014a9062000cf2565b9150506200010b565b506200016760a0516200026e60201b60201c565b6001600080815260200190815260200160002081905550505060016003819055508273ffffffffffffffffffffffffffffffffffffffff1660c08173ffffffffffffffffffffffffffffffffffffffff16815250508173ffffffffffffffffffffffffffffffffffffffff1660e08173ffffffffffffffffffffffffffffffffffffffff16815250508073ffffffffffffffffffffffffffffffffffffffff166101008173ffffffffffffffffffffffffffffffffffffffff16815250508473ffffffffffffffffffffffffffffffffffffffff166101208173ffffffffffffffffffffffffffffffffffffffff1681525050856004819055505050505050505062000db1565b6000808203620002a4577f2fe54c60d3acabf3343a35b6eba15db4821b340f76e741e2249685ed4899af6c60001b905062000980565b60018203620002d9577f13e37f2d6cb86c78ccc1788607c2b199788c6bb0a615a21f2e7a8e88384222f860001b905062000980565b600282036200030e577f217126fa352c326896e8c2803eec8fd63ad50cf65edfef27a41a9e32dc62276560001b905062000980565b6003820362000343577f0e28a61a9b3e91007d5a9e3ada18e1b24d6d230c618388ee5df34cacd7397eee60001b905062000980565b6004820362000378577f27953447a6979839536badc5425ed15fadb0e292e9bc36f92f0aa5cfa501358760001b905062000980565b60058203620003ad577f194191edbfb91d10f6a7afd315f33095410c7801c47175c2df6dc2cce0e3affc60001b905062000980565b60068203620003e2577f1733dece17d71190516dbaf1927936fa643dc7079fc0cc731de9d6845a47741f60001b905062000980565b6007820362000417577f267855a7dc75db39d81d17f95d0a7aa572bf5ae19f4db0e84221d2b2ef99921960001b905062000980565b600882036200044c577f1184e11836b4c36ad8238a340ecc0985eeba665327e33e9b0e3641027c27620d60001b905062000980565b6009820362000481577f0702ab83a135d7f55350ab1bfaa90babd8fc1d2b3e6a7215381a7b2213d6c5ce60001b905062000980565b600a8203620004b6577f2eecc0de814cfd8c57ce882babb2e30d1da56621aef7a47f3291cffeaec26ad760001b905062000980565b600b8203620004eb577f280bc02145c155d5833585b6c7b08501055157dd30ce005319621dc462d33b4760001b905062000980565b600c820362000520577f045132221d1fa0a7f4aed8acd2cbec1e2189b7732ccb2ec272b9c60f0d5afc5b60001b905062000980565b600d820362000555577f27f427ccbf58a44b1270abbe4eda6ba53bd6ac4d88cf1e00a13c4371ce71d36660001b905062000980565b600e82036200058a577f1617eaae5064f26e8f8a6493ae92bfded7fde71b65df1ca6d5dcec0df70b2cef60001b905062000980565b600f8203620005bf577f20c6b400d0ea1b15435703c31c31ee63ad7ba5c8da66cec2796feacea575abca60001b905062000980565b60108203620005f4577f09589ddb438723f53a8e57bdada7c5f8ed67e8fece3889a73618732965645eec60001b905062000980565b6011820362000628577e64b6a738a5ff537db7b220f3394f0ecbd35bfd355c5425dc1166bf3236079b60001b905062000980565b601282036200065d577f095de56281b1d5055e897c3574ff790d5ee81dbc5df784ad2d67795e557c9e9f60001b905062000980565b6013820362000692577f11cf2e2887aa21963a6ec14289183efe4d4c60f14ecd3d6fe0beebdf855a9b6360001b905062000980565b60148203620006c7577f2b0f6fc0179fa65b6f73627c0e1e84c7374d2eaec44c9a48f2571393ea77bcbb60001b905062000980565b60158203620006fc577f16fdb637c2abf9c0f988dbf2fd64258c46fb6a273d537b2cf1603ea460b1327960001b905062000980565b6016820362000731577f21bbd7e944f6124dad4c376df9cc12e7ca66e47dff703ff7cedb1a454edcf0ff60001b905062000980565b6017820362000766577f2784f8220b1c963e468f590f137baaa1625b3b92a27ad9b6e84eb0d3454d996260001b905062000980565b601882036200079b577f16ace1a65b7534142f8cc1aad810b3d6a7a74ca905d9c275cb98ba57e509fc1060001b905062000980565b60198203620007d0577f2328068c6a8c24265124debd8fe10d3f29f0665ea725a65e3638f6192a96a01360001b905062000980565b601a820362000805577f2ddb991be1f028022411b4c4d2c22043e5e751c120736f00adf54acab1c9ac1460001b905062000980565b601b82036200083a577f0113798410eaeb95056a464f70521eb58377c0155f2fe518a5594d38cc209cc060001b905062000980565b601c82036200086f577f202d1ae61526f0d0d01ef80fb5d4055a7af45721024c2c24cffd6a3798f54d5060001b905062000980565b601d8203620008a4577f23ab323453748129f2765f79615022f5bebd6f4096a796300aab049a60b0f18760001b905062000980565b601e8203620008d9577f1f15585f8947e378bcf8bd918716799da909acdb944c57150b1eb4565fda8aa060001b905062000980565b601f82036200090e577f1eb064b21055ac6a350cf41eb30e4ce2cb19680217df3a243617c2838185ad0660001b905062000980565b6020820362000943577f25a90efc49af54a5b7154a6eaba978dcf04796b4984fe54be8d4ea8579e1f1e660001b905062000980565b6040517f08c379a0000000000000000000000000000000000000000000000000000000008152600401620009779062000d8f565b60405180910390fd5b919050565b600080fd5b600063ffffffff82169050919050565b620009a5816200098a565b8114620009b157600080fd5b50565b600081519050620009c5816200099a565b92915050565b6000819050919050565b620009e081620009cb565b8114620009ec57600080fd5b50565b60008151905062000a0081620009d5565b92915050565b600073ffffffffffffffffffffffffffffffffffffffff82169050919050565b600062000a338262000a06565b9050919050565b600062000a478262000a26565b9050919050565b62000a598162000a3a565b811462000a6557600080fd5b50565b60008151905062000a798162000a4e565b92915050565b62000a8a8162000a26565b811462000a9657600080fd5b50565b60008151905062000aaa8162000a7f565b92915050565b600062000abd8262000a26565b9050919050565b62000acf8162000ab0565b811462000adb57600080fd5b50565b60008151905062000aef8162000ac4565b92915050565b600080600080600080600060e0888a03121562000b175762000b1662000985565b5b600062000b278a828b01620009b4565b975050602062000b3a8a828b01620009ef565b965050604062000b4d8a828b0162000a68565b955050606062000b608a828b0162000a99565b945050608062000b738a828b0162000ade565b93505060a062000b868a828b0162000ade565b92505060c062000b998a828b0162000ade565b91505092959891949750929550565b600082825260208201905092915050565b7f4c6576656c732073686f756c642062652067726561746572207468616e207a6560008201527f726f000000000000000000000000000000000000000000000000000000000000602082015250565b600062000c1760228362000ba8565b915062000c248262000bb9565b604082019050919050565b6000602082019050818103600083015262000c4a8162000c08565b9050919050565b7f4c6576656c732073686f756c64206265206c657373207468616e203332000000600082015250565b600062000c89601d8362000ba8565b915062000c968262000c51565b602082019050919050565b6000602082019050818103600083015262000cbc8162000c7a565b9050919050565b7f4e487b7100000000000000000000000000000000000000000000000000000000600052601160045260246000fd5b600062000cff82620009cb565b91507fffffffffffffffffffffffffffffffffffffffffffffffffffffffffffffffff820362000d345762000d3362000cc3565b5b600182019050919050565b7f496e646578206f7574206f6620626f756e647300000000000000000000000000600082015250565b600062000d7760138362000ba8565b915062000d848262000d3f565b602082019050919050565b6000602082019050818103600083015262000daa8162000d68565b9050919050565b60805160a05160c05160e0516101005161012051613ef762000e4e6000396000818161093b0152818161183901528181611d5f01528181611ebd015281816122fa015261245801526000818161079d0152610db3015260008181610dd90152610fe8015260008181610c1e0152610eea0152600081816110aa0152818161188b015261190f015260008181610b5701526117fd0152613ef76000f3fe6080604052600436106101d05760003560e01c806390eeb02b116100f7578063e1faa14611610095578063ed33639f11610064578063ed33639f146106db578063f178e47c14610706578063fc0c546a14610743578063fc7e9c6f1461076e576101d7565b8063e1faa1461461060d578063e5285dcc14610636578063e829558814610673578063ec732959146106b0576101d7565b8063bc063e1a116100d1578063bc063e1a1461054f578063c2b40ae41461057a578063cd87a3b4146105b7578063e013eb01146105e2576101d7565b806390eeb02b146104d0578063a452eac3146104fb578063ba70f75714610524576101d7565b806354442a901161016f57806376f7ed4b1161013e57806376f7ed4b146104125780637fe24ffe1461044f578063864eb1641461047a5780638ed83271146104a5576101d7565b806354442a90146103305780636d9833e31461036d5780637236f471146103aa57806376b53d99146103d5576101d7565b80632d08050a116101ab5780632d08050a1461027257806338bf282e1461029d578063414a37ba146102da578063453827c614610305576101d7565b806205c421146101dc5780630aa947eb1461021957806317cc915c14610235576101d7565b366101d757005b600080fd5b3480156101e857600080fd5b5061020360048036038101906101fe9190612662565b610799565b60405161021091906126ab565b60405180910390f35b610233600480360381019061022e919061274b565b6108aa565b005b34801561024157600080fd5b5061025c600480360381019061025791906127e3565b610a19565b60405161026991906126ab565b60405180910390f35b34801561027e57600080fd5b50610287610a39565b6040516102949190612829565b60405180910390f35b3480156102a957600080fd5b506102c460048036038101906102bf9190612844565b610a45565b6040516102d19190612893565b60405180910390f35b3480156102e657600080fd5b506102ef610bf8565b6040516102fc9190612829565b60405180910390f35b34801561031157600080fd5b5061031a610c1c565b604051610327919061292d565b60405180910390f35b34801561033c57600080fd5b5061035760048036038101906103529190612974565b610c40565b6040516103649190612829565b60405180910390f35b34801561037957600080fd5b50610394600480360381019061038f91906127e3565b610d1a565b6040516103a191906126ab565b60405180910390f35b3480156103b657600080fd5b506103bf610db1565b6040516103cc919061292d565b60405180910390f35b3480156103e157600080fd5b506103fc60048036038101906103f791906129d4565b610dd5565b60405161040991906126ab565b60405180910390f35b34801561041e57600080fd5b5061043960048036038101906104349190612a02565b610ee6565b60405161044691906126ab565b60405180910390f35b34801561045b57600080fd5b50610464610fc2565b6040516104719190612829565b60405180910390f35b34801561048657600080fd5b5061048f610fe6565b60405161049c919061292d565b60405180910390f35b3480156104b157600080fd5b506104ba61100a565b6040516104c79190612829565b60405180910390f35b3480156104dc57600080fd5b506104e5611010565b6040516104f29190612a4f565b60405180910390f35b34801561050757600080fd5b50610522600480360381019061051d9190612a89565b611026565b005b34801561053057600080fd5b50610539611034565b6040516105469190612893565b60405180910390f35b34801561055b57600080fd5b50610564611067565b6040516105719190612829565b60405180910390f35b34801561058657600080fd5b506105a1600480360381019061059c9190612ae7565b61108b565b6040516105ae9190612893565b60405180910390f35b3480156105c357600080fd5b506105cc6110a3565b6040516105d99190612a4f565b60405180910390f35b3480156105ee57600080fd5b506105f76110a8565b6040516106049190612829565b60405180910390f35b34801561061957600080fd5b50610634600480360381019061062f9190612b14565b6110cc565b005b34801561064257600080fd5b5061065d600480360381019061065891906127e3565b6110da565b60405161066a91906126ab565b60405180910390f35b34801561067f57600080fd5b5061069a60048036038101906106959190612ae7565b611104565b6040516106a79190612893565b60405180910390f35b3480156106bc57600080fd5b506106c56117d7565b6040516106d29190612829565b60405180910390f35b3480156106e757600080fd5b506106f06117fb565b6040516106fd9190612b93565b60405180910390f35b34801561071257600080fd5b5061072d60048036038101906107289190612ae7565b61181f565b60405161073a9190612893565b60405180910390f35b34801561074f57600080fd5b50610758611837565b6040516107659190612bcf565b60405180910390f35b34801561077a57600080fd5b5061078361185b565b6040516107909190612a4f565b60405180910390f35b60007f000000000000000000000000000000000000000000000000000000000000000073ffffffffffffffffffffffffffffffffffffffff1663f398789b83600001600001846000016040018560000160c0016040518060c0016040528088610100013560001c8152602001886101800135815260200188610160013560001c815260200188610120013560001c8152602001886101a00135815260200188610140013560001c8152506040518563ffffffff1660e01b81526004016108629493929190612d6d565b602060405180830381865afa15801561087f573d6000803e3d6000fd5b505050506040513d601f19601f820116820180604052508101906108a39190612de0565b9050919050565b82610100013534146108f1576040517f08c379a00000000000000000000000000000000000000000000000000000000081526004016108e890612e6a565b60405180910390fd5b6108fa83610ee6565b610939576040517f08c379a000000000000000000000000000000000000000000000000000000000815260040161093090612ed6565b60405180910390fd5b7f000000000000000000000000000000000000000000000000000000000000000073ffffffffffffffffffffffffffffffffffffffff1663d0e30db08461010001356040518263ffffffff1660e01b81526004016000604051808303818588803b1580156109a657600080fd5b505af11580156109ba573d6000803e3d6000fd5b505050505060006109cf846101200135611871565b90507ff3843eddcfcac65d12d9f26261dab50671fdbf5dc44441816c8bbdace2411afd846101200135828585604051610a0b9493929190612f85565b60405180910390a150505050565b60056020528060005260406000206000915054906101000a900460ff1681565b6706f05b59d3b2000081565b60007f30644e72e131a029b85045b68181585d2833e84879b9709143e1f593f00000018360001c10610aac576040517f08c379a0000000000000000000000000000000000000000000000000000000008152600401610aa390613011565b60405180910390fd5b7f30644e72e131a029b85045b68181585d2833e84879b9709143e1f593f00000018260001c10610b11576040517f08c379a0000000000000000000000000000000000000000000000000000000008152600401610b089061307d565b60405180910390fd5b610b19612611565b8381600060028110610b2e57610b2d61309d565b5b6020020181815250508281600160028110610b4c57610b4b61309d565b5b6020020181815250507f000000000000000000000000000000000000000000000000000000000000000073ffffffffffffffffffffffffffffffffffffffff1663299e5660826040518263ffffffff1660e01b8152600401610bae9190613177565b602060405180830381865afa158015610bcb573d6000803e3d6000fd5b505050506040513d601f19601f82011682018060405250810190610bef91906131a7565b91505092915050565b7f30644e72e131a029b85045b68181585d2833e84879b9709143e1f593f000000181565b7f000000000000000000000000000000000000000000000000000000000000000081565b60007f01000000000000000000000000000000000000000000000000000000000000008210610ca4576040517f08c379a0000000000000000000000000000000000000000000000000000000008152600401610c9b90613220565b60405180910390fd5b7f01000000000000000000000000000000000000000000000000000000000000008310610d06576040517f08c379a0000000000000000000000000000000000000000000000000000000008152600401610cfd9061328c565b60405180910390fd5b8183610d1291906132db565b905092915050565b60008060001b8203610d2f5760009050610dac565b6000600260009054906101000a900463ffffffff16905060008163ffffffff1690505b60016000828152602001908152602001600020548403610d7757600192505050610dac565b60008103610d8a57606463ffffffff1690505b8080610d959061330f565b9150508163ffffffff168103610d52576000925050505b919050565b7f000000000000000000000000000000000000000000000000000000000000000081565b60007f000000000000000000000000000000000000000000000000000000000000000073ffffffffffffffffffffffffffffffffffffffff1663f398789b83600001600001846000016040018560000160c0016040518060c0016040528088610100013560001c8152602001886101800135815260200188610160013560001c815260200188610120013560001c8152602001886101a00135815260200188610140013560001c8152506040518563ffffffff1660e01b8152600401610e9e9493929190612d6d565b602060405180830381865afa158015610ebb573d6000803e3d6000fd5b505050506040513d601f19601f82011682018060405250810190610edf9190612de0565b9050919050565b60007f000000000000000000000000000000000000000000000000000000000000000073ffffffffffffffffffffffffffffffffffffffff1663f5c9d69e83600001600001846000016040018560000160c0016040518060400160405280886101000135815260200188610120013560001c8152506040518563ffffffff1660e01b8152600401610f7a94939291906133bc565b602060405180830381865afa158015610f97573d6000803e3d6000fd5b505050506040513d601f19601f82011682018060405250810190610fbb9190612de0565b9050919050565b7f010000000000000000000000000000000000000000000000000000000000000081565b7f000000000000000000000000000000000000000000000000000000000000000081565b60045481565b600260009054906101000a900463ffffffff1681565b6110308282611a82565b5050565b600060016000600260009054906101000a900463ffffffff1663ffffffff16815260200190815260200160002054905090565b7f010000000000000000000000000000000000000000000000000000000000000081565b60016020528060005260406000206000915090505481565b606481565b7f000000000000000000000000000000000000000000000000000000000000000081565b6110d6828261201d565b5050565b60006005600083815260200190815260200160002060009054906101000a900460ff169050919050565b6000808203611138577f2fe54c60d3acabf3343a35b6eba15db4821b340f76e741e2249685ed4899af6c60001b90506117d2565b6001820361116b577f13e37f2d6cb86c78ccc1788607c2b199788c6bb0a615a21f2e7a8e88384222f860001b90506117d2565b6002820361119e577f217126fa352c326896e8c2803eec8fd63ad50cf65edfef27a41a9e32dc62276560001b90506117d2565b600382036111d1577f0e28a61a9b3e91007d5a9e3ada18e1b24d6d230c618388ee5df34cacd7397eee60001b90506117d2565b60048203611204577f27953447a6979839536badc5425ed15fadb0e292e9bc36f92f0aa5cfa501358760001b90506117d2565b60058203611237577f194191edbfb91d10f6a7afd315f33095410c7801c47175c2df6dc2cce0e3affc60001b90506117d2565b6006820361126a577f1733dece17d71190516dbaf1927936fa643dc7079fc0cc731de9d6845a47741f60001b90506117d2565b6007820361129d577f267855a7dc75db39d81d17f95d0a7aa572bf5ae19f4db0e84221d2b2ef99921960001b90506117d2565b600882036112d0577f1184e11836b4c36ad8238a340ecc0985eeba665327e33e9b0e3641027c27620d60001b90506117d2565b60098203611303577f0702ab83a135d7f55350ab1bfaa90babd8fc1d2b3e6a7215381a7b2213d6c5ce60001b90506117d2565b600a8203611336577f2eecc0de814cfd8c57ce882babb2e30d1da56621aef7a47f3291cffeaec26ad760001b90506117d2565b600b8203611369577f280bc02145c155d5833585b6c7b08501055157dd30ce005319621dc462d33b4760001b90506117d2565b600c820361139c577f045132221d1fa0a7f4aed8acd2cbec1e2189b7732ccb2ec272b9c60f0d5afc5b60001b90506117d2565b600d82036113cf577f27f427ccbf58a44b1270abbe4eda6ba53bd6ac4d88cf1e00a13c4371ce71d36660001b90506117d2565b600e8203611402577f1617eaae5064f26e8f8a6493ae92bfded7fde71b65df1ca6d5dcec0df70b2cef60001b90506117d2565b600f8203611435577f20c6b400d0ea1b15435703c31c31ee63ad7ba5c8da66cec2796feacea575abca60001b90506117d2565b60108203611468577f09589ddb438723f53a8e57bdada7c5f8ed67e8fece3889a73618732965645eec60001b90506117d2565b6011820361149a577e64b6a738a5ff537db7b220f3394f0ecbd35bfd355c5425dc1166bf3236079b60001b90506117d2565b601282036114cd577f095de56281b1d5055e897c3574ff790d5ee81dbc5df784ad2d67795e557c9e9f60001b90506117d2565b60138203611500577f11cf2e2887aa21963a6ec14289183efe4d4c60f14ecd3d6fe0beebdf855a9b6360001b90506117d2565b60148203611533577f2b0f6fc0179fa65b6f73627c0e1e84c7374d2eaec44c9a48f2571393ea77bcbb60001b90506117d2565b60158203611566577f16fdb637c2abf9c0f988dbf2fd64258c46fb6a273d537b2cf1603ea460b1327960001b90506117d2565b60168203611599577f21bbd7e944f6124dad4c376df9cc12e7ca66e47dff703ff7cedb1a454edcf0ff60001b90506117d2565b601782036115cc577f2784f8220b1c963e468f590f137baaa1625b3b92a27ad9b6e84eb0d3454d996260001b90506117d2565b601882036115ff577f16ace1a65b7534142f8cc1aad810b3d6a7a74ca905d9c275cb98ba57e509fc1060001b90506117d2565b60198203611632577f2328068c6a8c24265124debd8fe10d3f29f0665ea725a65e3638f6192a96a01360001b90506117d2565b601a8203611665577f2ddb991be1f028022411b4c4d2c22043e5e751c120736f00adf54acab1c9ac1460001b90506117d2565b601b8203611698577f0113798410eaeb95056a464f70521eb58377c0155f2fe518a5594d38cc209cc060001b90506117d2565b601c82036116cb577f202d1ae61526f0d0d01ef80fb5d4055a7af45721024c2c24cffd6a3798f54d5060001b90506117d2565b601d82036116fe577f23ab323453748129f2765f79615022f5bebd6f4096a796300aab049a60b0f18760001b90506117d2565b601e8203611731577f1f15585f8947e378bcf8bd918716799da909acdb944c57150b1eb4565fda8aa060001b90506117d2565b601f8203611764577f1eb064b21055ac6a350cf41eb30e4ce2cb19680217df3a243617c2838185ad0660001b90506117d2565b60208203611797577f25a90efc49af54a5b7154a6eaba978dcf04796b4984fe54be8d4ea8579e1f1e660001b90506117d2565b6040517f08c379a00000000000000000000000000000000000000000000000000000000081526004016117c99061344f565b60405180910390fd5b919050565b7f2fe54c60d3acabf3343a35b6eba15db4821b340f76e741e2249685ed4899af6c81565b7f000000000000000000000000000000000000000000000000000000000000000081565b60006020528060005260406000206000915090505481565b7f000000000000000000000000000000000000000000000000000000000000000081565b600260049054906101000a900463ffffffff1681565b600080600260049054906101000a900463ffffffff1690507f000000000000000000000000000000000000000000000000000000000000000060026118b691906135a2565b8163ffffffff16036118fd576040517f08c379a00000000000000000000000000000000000000000000000000000000081526004016118f490613639565b60405180910390fd5b6000819050600084905060008060005b7f00000000000000000000000000000000000000000000000000000000000000008163ffffffff1610156119d857600060028661194a9190613688565b63ffffffff160361198b578392506119678163ffffffff16611104565b9150836000808363ffffffff168152602001908152602001600020819055506119aa565b6000808263ffffffff1681526020019081526020016000205492508391505b6119b48383610a45565b93506002856119c391906136b9565b945080806119d0906136ea565b91505061190d565b50600060646001600260009054906101000a900463ffffffff166119fc9190613716565b611a069190613688565b905080600260006101000a81548163ffffffff021916908363ffffffff16021790555083600160008363ffffffff16815260200190815260200160002081905550600186611a549190613716565b600260046101000a81548163ffffffff021916908363ffffffff160217905550859650505050505050919050565b611a8a6125b8565b611a98826101000135610d1a565b611ad7576040517f08c379a0000000000000000000000000000000000000000000000000000000008152600401611ace9061379a565b60405180910390fd5b611ae58261012001356110da565b15611b25576040517f08c379a0000000000000000000000000000000000000000000000000000000008152600401611b1c90613806565b60405180910390fd5b42826101a001351015611b6d576040517f08c379a0000000000000000000000000000000000000000000000000000000008152600401611b6490613872565b60405180910390fd5b7f30644e72e131a029b85045b68181585d2833e84879b9709143e1f593f000000181604051602001611b9f9190613a5d565b6040516020818303038152906040528051906020012060001c611bc29190613a7f565b82610160013560001c14611c0b576040517f08c379a0000000000000000000000000000000000000000000000000000000008152600401611c0290613afc565b60405180910390fd5b611c1d81602001358260600135610c40565b82610180013514611c63576040517f08c379a0000000000000000000000000000000000000000000000000000000008152600401611c5a90613b68565b60405180910390fd5b600073ffffffffffffffffffffffffffffffffffffffff16816000016020810190611c8e9190613b88565b73ffffffffffffffffffffffffffffffffffffffff1603611ce4576040517f08c379a0000000000000000000000000000000000000000000000000000000008152600401611cdb90613c01565b60405180910390fd5b611ced82610799565b611d2c576040517f08c379a0000000000000000000000000000000000000000000000000000000008152600401611d2390613c6d565b60405180910390fd5b600160056000846101200135815260200190815260200160002060006101000a81548160ff0219169083151502179055507f000000000000000000000000000000000000000000000000000000000000000073ffffffffffffffffffffffffffffffffffffffff16632e1a7d4d82602001356040518263ffffffff1660e01b8152600401611dba9190612829565b600060405180830381600087803b158015611dd457600080fd5b505af1158015611de8573d6000803e3d6000fd5b505050506000816000016020810190611e019190613b88565b73ffffffffffffffffffffffffffffffffffffffff168260200135604051611e2890613cbe565b60006040518083038185875af1925050503d8060008114611e65576040519150601f19603f3d011682016040523d82523d6000602084013e611e6a565b606091505b5050905080611eae576040517f08c379a0000000000000000000000000000000000000000000000000000000008152600401611ea590613d1f565b60405180910390fd5b600082606001351115611f71577f000000000000000000000000000000000000000000000000000000000000000073ffffffffffffffffffffffffffffffffffffffff1663a9059cbb836040016020810190611f0a9190613b88565b84606001356040518363ffffffff1660e01b8152600401611f2c929190613d4e565b6020604051808303816000875af1158015611f4b573d6000803e3d6000fd5b505050506040513d601f19601f82011682018060405250810190611f6f9190612de0565b505b6000611f81846101400135611871565b90507ff3843eddcfcac65d12d9f26261dab50671fdbf5dc44441816c8bbdace2411afd84610140013582858060800190611fbb9190613d86565b604051611fcb9493929190612f85565b60405180910390a17f5e58f77bbf94b46d8d896e29753e4458c6e59b48581e20ed58c9558e96f297ce8461012001356040516120079190612893565b60405180910390a15050612019612607565b5050565b6120256125b8565b612033826101000135610d1a565b612072576040517f08c379a00000000000000000000000000000000000000000000000000000000081526004016120699061379a565b60405180910390fd5b6120808261012001356110da565b156120c0576040517f08c379a00000000000000000000000000000000000000000000000000000000081526004016120b790613806565b60405180910390fd5b42826101a001351115612108576040517f08c379a00000000000000000000000000000000000000000000000000000000081526004016120ff90613e35565b60405180910390fd5b7f30644e72e131a029b85045b68181585d2833e84879b9709143e1f593f00000018160405160200161213a9190613a5d565b6040516020818303038152906040528051906020012060001c61215d9190613a7f565b82610160013560001c146121a6576040517f08c379a000000000000000000000000000000000000000000000000000000000815260040161219d90613afc565b60405180910390fd5b6121b881602001358260600135610c40565b826101800135146121fe576040517f08c379a00000000000000000000000000000000000000000000000000000000081526004016121f590613b68565b60405180910390fd5b600073ffffffffffffffffffffffffffffffffffffffff168160000160208101906122299190613b88565b73ffffffffffffffffffffffffffffffffffffffff160361227f576040517f08c379a000000000000000000000000000000000000000000000000000000000815260040161227690613c01565b60405180910390fd5b61228882610dd5565b6122c7576040517f08c379a00000000000000000000000000000000000000000000000000000000081526004016122be90613c6d565b60405180910390fd5b600160056000846101200135815260200190815260200160002060006101000a81548160ff0219169083151502179055507f000000000000000000000000000000000000000000000000000000000000000073ffffffffffffffffffffffffffffffffffffffff16632e1a7d4d82602001356040518263ffffffff1660e01b81526004016123559190612829565b600060405180830381600087803b15801561236f57600080fd5b505af1158015612383573d6000803e3d6000fd5b50505050600081600001602081019061239c9190613b88565b73ffffffffffffffffffffffffffffffffffffffff1682602001356040516123c390613cbe565b60006040518083038185875af1925050503d8060008114612400576040519150601f19603f3d011682016040523d82523d6000602084013e612405565b606091505b5050905080612449576040517f08c379a000000000000000000000000000000000000000000000000000000000815260040161244090613d1f565b60405180910390fd5b60008260600135111561250c577f000000000000000000000000000000000000000000000000000000000000000073ffffffffffffffffffffffffffffffffffffffff1663a9059cbb8360400160208101906124a59190613b88565b84606001356040518363ffffffff1660e01b81526004016124c7929190613d4e565b6020604051808303816000875af11580156124e6573d6000803e3d6000fd5b505050506040513d601f19601f8201168201806040525081019061250a9190612de0565b505b600061251c846101400135611871565b90507ff3843eddcfcac65d12d9f26261dab50671fdbf5dc44441816c8bbdace2411afd846101400135828580608001906125569190613d86565b6040516125669493929190612f85565b60405180910390a17f5e58f77bbf94b46d8d896e29753e4458c6e59b48581e20ed58c9558e96f297ce8461012001356040516125a29190612893565b60405180910390a150506125b4612607565b5050565b6002600354036125fd576040517f08c379a00000000000000000000000000000000000000000000000000000000081526004016125f490613ea1565b60405180910390fd5b6002600381905550565b6001600381905550565b6040518060400160405280600290602082028036833780820191505090505090565b600080fd5b600080fd5b600080fd5b60006101c082840312156126595761265861263d565b5b81905092915050565b60006101c0828403121561267957612678612633565b5b600061268784828501612642565b91505092915050565b60008115159050919050565b6126a581612690565b82525050565b60006020820190506126c0600083018461269c565b92915050565b600061014082840312156126dd576126dc61263d565b5b81905092915050565b600080fd5b600080fd5b600080fd5b60008083601f84011261270b5761270a6126e6565b5b8235905067ffffffffffffffff811115612728576127276126eb565b5b602083019150836001820283011115612744576127436126f0565b5b9250929050565b6000806000610160848603121561276557612764612633565b5b6000612773868287016126c6565b93505061014084013567ffffffffffffffff81111561279557612794612638565b5b6127a1868287016126f5565b92509250509250925092565b6000819050919050565b6127c0816127ad565b81146127cb57600080fd5b50565b6000813590506127dd816127b7565b92915050565b6000602082840312156127f9576127f8612633565b5b6000612807848285016127ce565b91505092915050565b6000819050919050565b61282381612810565b82525050565b600060208201905061283e600083018461281a565b92915050565b6000806040838503121561285b5761285a612633565b5b6000612869858286016127ce565b925050602061287a858286016127ce565b9150509250929050565b61288d816127ad565b82525050565b60006020820190506128a86000830184612884565b92915050565b600073ffffffffffffffffffffffffffffffffffffffff82169050919050565b6000819050919050565b60006128f36128ee6128e9846128ae565b6128ce565b6128ae565b9050919050565b6000612905826128d8565b9050919050565b6000612917826128fa565b9050919050565b6129278161290c565b82525050565b6000602082019050612942600083018461291e565b92915050565b61295181612810565b811461295c57600080fd5b50565b60008135905061296e81612948565b92915050565b6000806040838503121561298b5761298a612633565b5b60006129998582860161295f565b92505060206129aa8582860161295f565b9150509250929050565b60006101c082840312156129cb576129ca61263d565b5b81905092915050565b60006101c082840312156129eb576129ea612633565b5b60006129f9848285016129b4565b91505092915050565b60006101408284031215612a1957612a18612633565b5b6000612a27848285016126c6565b91505092915050565b600063ffffffff82169050919050565b612a4981612a30565b82525050565b6000602082019050612a646000830184612a40565b92915050565b600060a08284031215612a8057612a7f61263d565b5b81905092915050565b6000806101e08385031215612aa157612aa0612633565b5b6000612aaf85828601612642565b9250506101c083013567ffffffffffffffff811115612ad157612ad0612638565b5b612add85828601612a6a565b9150509250929050565b600060208284031215612afd57612afc612633565b5b6000612b0b8482850161295f565b91505092915050565b6000806101e08385031215612b2c57612b2b612633565b5b6000612b3a858286016129b4565b9250506101c083013567ffffffffffffffff811115612b5c57612b5b612638565b5b612b6885828601612a6a565b9150509250929050565b6000612b7d826128fa565b9050919050565b612b8d81612b72565b82525050565b6000602082019050612ba86000830184612b84565b92915050565b6000612bb9826128fa565b9050919050565b612bc981612bae565b82525050565b6000602082019050612be46000830184612bc0565b92915050565b82818337505050565b612bff60408383612bea565b5050565b600060029050919050565b600081905092915050565b6000819050919050565b612c2f60408383612bea565b5050565b6000612c3f8383612c23565b60408301905092915050565b600082905092915050565b6000604082019050919050565b612c6c81612c03565b612c768184612c0e565b9250612c8182612c19565b8060005b83811015612cba57612c978284612c4b565b612ca18782612c33565b9650612cac83612c56565b925050600181019050612c85565b505050505050565b600060069050919050565b600081905092915050565b6000819050919050565b612ceb81612810565b82525050565b6000612cfd8383612ce2565b60208301905092915050565b6000602082019050919050565b612d1f81612cc2565b612d298184612ccd565b9250612d3482612cd8565b8060005b83811015612d65578151612d4c8782612cf1565b9650612d5783612d09565b925050600181019050612d38565b505050505050565b60006101c082019050612d836000830187612bf3565b612d906040830186612c63565b612d9d60c0830185612bf3565b612dab610100830184612d16565b95945050505050565b612dbd81612690565b8114612dc857600080fd5b50565b600081519050612dda81612db4565b92915050565b600060208284031215612df657612df5612633565b5b6000612e0484828501612dcb565b91505092915050565b600082825260208201905092915050565b7f496e76616c696420616d6f756e74000000000000000000000000000000000000600082015250565b6000612e54600e83612e0d565b9150612e5f82612e1e565b602082019050919050565b60006020820190508181036000830152612e8381612e47565b9050919050565b7f496e76616c69642070726f706f73616c2070726f6f6600000000000000000000600082015250565b6000612ec0601683612e0d565b9150612ecb82612e8a565b602082019050919050565b60006020820190508181036000830152612eef81612eb3565b9050919050565b6000612f11612f0c612f0784612a30565b6128ce565b612810565b9050919050565b612f2181612ef6565b82525050565b600082825260208201905092915050565b82818337600083830152505050565b6000601f19601f8301169050919050565b6000612f648385612f27565b9350612f71838584612f38565b612f7a83612f47565b840190509392505050565b6000606082019050612f9a6000830187612884565b612fa76020830186612f18565b8181036040830152612fba818486612f58565b905095945050505050565b7f4c6566742073686f756c6420626520696e7369646520746865206669656c6400600082015250565b6000612ffb601f83612e0d565b915061300682612fc5565b602082019050919050565b6000602082019050818103600083015261302a81612fee565b9050919050565b7f52696768742073686f756c6420626520696e7369646520746865206669656c64600082015250565b6000613067602083612e0d565b915061307282613031565b602082019050919050565b600060208201905081810360008301526130968161305a565b9050919050565b7f4e487b7100000000000000000000000000000000000000000000000000000000600052603260045260246000fd5b600060029050919050565b600081905092915050565b6000819050919050565b6130f5816127ad565b82525050565b600061310783836130ec565b60208301905092915050565b6000602082019050919050565b613129816130cc565b61313381846130d7565b925061313e826130e2565b8060005b8381101561316f57815161315687826130fb565b965061316183613113565b925050600181019050613142565b505050505050565b600060408201905061318c6000830184613120565b92915050565b6000815190506131a1816127b7565b92915050565b6000602082840312156131bd576131bc612633565b5b60006131cb84828501613192565b91505092915050565b7f496e76616c696420666565000000000000000000000000000000000000000000600082015250565b600061320a600b83612e0d565b9150613215826131d4565b602082019050919050565b60006020820190508181036000830152613239816131fd565b9050919050565b7f496e76616c69642065787420616d6f756e740000000000000000000000000000600082015250565b6000613276601283612e0d565b915061328182613240565b602082019050919050565b600060208201905081810360008301526132a581613269565b9050919050565b7f4e487b7100000000000000000000000000000000000000000000000000000000600052601160045260246000fd5b60006132e682612810565b91506132f183612810565b9250828201905080821115613309576133086132ac565b5b92915050565b600061331a82612810565b91506000820361332d5761332c6132ac565b5b600182039050919050565b600060029050919050565b600081905092915050565b6000819050919050565b6000602082019050919050565b61336e81613338565b6133788184613343565b92506133838261334e565b8060005b838110156133b457815161339b8782612cf1565b96506133a683613358565b925050600181019050613387565b505050505050565b6000610140820190506133d26000830187612bf3565b6133df6040830186612c63565b6133ec60c0830185612bf3565b6133fa610100830184613365565b95945050505050565b7f496e646578206f7574206f6620626f756e647300000000000000000000000000600082015250565b6000613439601383612e0d565b915061344482613403565b602082019050919050565b600060208201905081810360008301526134688161342c565b9050919050565b60008160011c9050919050565b6000808291508390505b60018511156134c6578086048111156134a2576134a16132ac565b5b60018516156134b15780820291505b80810290506134bf8561346f565b9450613486565b94509492505050565b6000826134df576001905061359b565b816134ed576000905061359b565b8160018114613503576002811461350d5761353c565b600191505061359b565b60ff84111561351f5761351e6132ac565b5b8360020a915084821115613536576135356132ac565b5b5061359b565b5060208310610133831016604e8410600b84101617156135715782820a90508381111561356c5761356b6132ac565b5b61359b565b61357e848484600161347c565b92509050818404811115613595576135946132ac565b5b81810290505b9392505050565b60006135ad82612810565b91506135b883612810565b92506135e57fffffffffffffffffffffffffffffffffffffffffffffffffffffffffffffffff84846134cf565b905092915050565b7f4d65726b6c6520747265652069732066756c6c00000000000000000000000000600082015250565b6000613623601383612e0d565b915061362e826135ed565b602082019050919050565b6000602082019050818103600083015261365281613616565b9050919050565b7f4e487b7100000000000000000000000000000000000000000000000000000000600052601260045260246000fd5b600061369382612a30565b915061369e83612a30565b9250826136ae576136ad613659565b5b828206905092915050565b60006136c482612a30565b91506136cf83612a30565b9250826136df576136de613659565b5b828204905092915050565b60006136f582612a30565b915063ffffffff820361370b5761370a6132ac565b5b600182019050919050565b600061372182612a30565b915061372c83612a30565b9250828201905063ffffffff811115613748576137476132ac565b5b92915050565b7f496e76616c6964206d65726b6c6520726f6f7400000000000000000000000000600082015250565b6000613784601383612e0d565b915061378f8261374e565b602082019050919050565b600060208201905081810360008301526137b381613777565b9050919050565b7f496e70757420697320616c7265616479207370656e7400000000000000000000600082015250565b60006137f0601683612e0d565b91506137fb826137ba565b602082019050919050565b6000602082019050818103600083015261381f816137e3565b9050919050565b7f4561726c79207265766f6b650000000000000000000000000000000000000000600082015250565b600061385c600c83612e0d565b915061386782613826565b602082019050919050565b6000602082019050818103600083015261388b8161384f565b9050919050565b600061389d826128ae565b9050919050565b6138ad81613892565b81146138b857600080fd5b50565b6000813590506138ca816138a4565b92915050565b60006138df60208401846138bb565b905092915050565b6138f081613892565b82525050565b6000613905602084018461295f565b905092915050565b600080fd5b600080fd5b600080fd5b6000808335600160200384360303811261393957613938613917565b5b83810192508235915060208301925067ffffffffffffffff8211156139615761396061390d565b5b60018202360383131561397757613976613912565b5b509250929050565b600082825260208201905092915050565b600061399c838561397f565b93506139a9838584612f38565b6139b283612f47565b840190509392505050565b600060a083016139d060008401846138d0565b6139dd60008601826138e7565b506139eb60208401846138f6565b6139f86020860182612ce2565b50613a0660408401846138d0565b613a1360408601826138e7565b50613a2160608401846138f6565b613a2e6060860182612ce2565b50613a3c608084018461391c565b8583036080870152613a4f838284613990565b925050508091505092915050565b60006020820190508181036000830152613a7781846139bd565b905092915050565b6000613a8a82612810565b9150613a9583612810565b925082613aa557613aa4613659565b5b828206905092915050565b7f496e636f72726563742065787465726e616c2064617461206861736800000000600082015250565b6000613ae6601c83612e0d565b9150613af182613ab0565b602082019050919050565b60006020820190508181036000830152613b1581613ad9565b9050919050565b7f496e76616c6964207075626c696320616d6f756e740000000000000000000000600082015250565b6000613b52601583612e0d565b9150613b5d82613b1c565b602082019050919050565b60006020820190508181036000830152613b8181613b45565b9050919050565b600060208284031215613b9e57613b9d612633565b5b6000613bac848285016138bb565b91505092915050565b7f43616e6e6f7420776974686472617720746f207a65726f206164647265737300600082015250565b6000613beb601f83612e0d565b9150613bf682613bb5565b602082019050919050565b60006020820190508181036000830152613c1a81613bde565b9050919050565b7f496e76616c6964207472616e73616374696f6e2070726f6f6600000000000000600082015250565b6000613c57601983612e0d565b9150613c6282613c21565b602082019050919050565b60006020820190508181036000830152613c8681613c4a565b9050919050565b600081905092915050565b50565b6000613ca8600083613c8d565b9150613cb382613c98565b600082019050919050565b6000613cc982613c9b565b9150819050919050565b7f4661696c656420746f2073656e642066756e6473000000000000000000000000600082015250565b6000613d09601483612e0d565b9150613d1482613cd3565b602082019050919050565b60006020820190508181036000830152613d3881613cfc565b9050919050565b613d4881613892565b82525050565b6000604082019050613d636000830185613d3f565b613d70602083018461281a565b9392505050565b600080fd5b600080fd5b600080fd5b60008083356001602003843603038112613da357613da2613d77565b5b80840192508235915067ffffffffffffffff821115613dc557613dc4613d7c565b5b602083019250600182023603831315613de157613de0613d81565b5b509250929050565b7f4561726c79207769746864726177000000000000000000000000000000000000600082015250565b6000613e1f600e83612e0d565b9150613e2a82613de9565b602082019050919050565b60006020820190508181036000830152613e4e81613e12565b9050919050565b7f5265656e7472616e637947756172643a207265656e7472616e742063616c6c00600082015250565b6000613e8b601f83612e0d565b9150613e9682613e55565b602082019050919050565b60006020820190508181036000830152613eba81613e7e565b905091905056fea264697066735822122066e96ee92a6806507526c5a44e3ac1555a0110140eaa269e37537e604f8f65dd64736f6c63430008110033",
  "devdoc": {
    "kind": "dev",
    "methods": {
      "isKnownRoot(bytes32)": {
        "details": "Whether the root is present in the root history"
      },
      "zeros(uint256)": {
        "details": "Zero elements for poseidon hash based merkle tree"
      }
    },
    "version": 1
  },
  "userdoc": {
    "kind": "user",
    "methods": {},
    "version": 1
  },
  "storageLayout": {
    "storage": [
      {
        "astId": 786,
        "contract": "contracts/Tsunami.sol:Tsunami",
        "label": "filledSubtrees",
        "offset": 0,
        "slot": "0",
        "type": "t_mapping(t_uint256,t_bytes32)"
      },
      {
        "astId": 790,
        "contract": "contracts/Tsunami.sol:Tsunami",
        "label": "roots",
        "offset": 0,
        "slot": "1",
        "type": "t_mapping(t_uint256,t_bytes32)"
      },
      {
        "astId": 792,
        "contract": "contracts/Tsunami.sol:Tsunami",
        "label": "currentRootIndex",
        "offset": 0,
        "slot": "2",
        "type": "t_uint32"
      },
      {
        "astId": 794,
        "contract": "contracts/Tsunami.sol:Tsunami",
        "label": "nextIndex",
        "offset": 4,
        "slot": "2",
        "type": "t_uint32"
      },
      {
        "astId": 10,
        "contract": "contracts/Tsunami.sol:Tsunami",
        "label": "_status",
        "offset": 0,
        "slot": "3",
        "type": "t_uint256"
      },
      {
        "astId": 1438,
        "contract": "contracts/Tsunami.sol:Tsunami",
        "label": "maxDepositAmount",
        "offset": 0,
        "slot": "4",
        "type": "t_uint256"
      },
      {
        "astId": 1442,
        "contract": "contracts/Tsunami.sol:Tsunami",
        "label": "nullifierHashes",
        "offset": 0,
        "slot": "5",
        "type": "t_mapping(t_bytes32,t_bool)"
      }
    ],
    "types": {
      "t_bool": {
        "encoding": "inplace",
        "label": "bool",
        "numberOfBytes": "1"
      },
      "t_bytes32": {
        "encoding": "inplace",
        "label": "bytes32",
        "numberOfBytes": "32"
      },
      "t_mapping(t_bytes32,t_bool)": {
        "encoding": "mapping",
        "key": "t_bytes32",
        "label": "mapping(bytes32 => bool)",
        "numberOfBytes": "32",
        "value": "t_bool"
      },
      "t_mapping(t_uint256,t_bytes32)": {
        "encoding": "mapping",
        "key": "t_uint256",
        "label": "mapping(uint256 => bytes32)",
        "numberOfBytes": "32",
        "value": "t_bytes32"
      },
      "t_uint256": {
        "encoding": "inplace",
        "label": "uint256",
        "numberOfBytes": "32"
      },
      "t_uint32": {
        "encoding": "inplace",
        "label": "uint32",
        "numberOfBytes": "4"
      }
    }
  }
}