{
  "address": "0xC5A663C188E4B4C42f9Ae1142E9A713271E2b04F",
  "abi": [
    {
      "inputs": [
        {
          "internalType": "uint256[2]",
          "name": "a",
          "type": "uint256[2]"
        },
        {
          "internalType": "uint256[2][2]",
          "name": "b",
          "type": "uint256[2][2]"
        },
        {
          "internalType": "uint256[2]",
          "name": "c",
          "type": "uint256[2]"
        },
        {
          "internalType": "uint256[6]",
          "name": "input",
          "type": "uint256[6]"
        }
      ],
      "name": "verifyProof",
      "outputs": [
        {
          "internalType": "bool",
          "name": "r",
          "type": "bool"
        }
      ],
      "stateMutability": "view",
      "type": "function"
    }
  ],
  "transactionHash": "0x0f7ebfb9c2aa480d845a80e038f53fe117c44f739a3205ab3b6f6ecd14505572",
  "args": [],
  "numDeployments": 1,
  "solcInputHash": "531c0fd3bae36b2aed533089ffd45109",
  "bytecode": "0x608060405234801561001057600080fd5b5061150e806100206000396000f3fe608060405234801561001057600080fd5b506004361061002b5760003560e01c8063f398789b14610030575b600080fd5b61018f60048036036101c081101561004757600080fd5b8101908080604001906002806020026040519081016040528092919082600260200280828437600081840152601f19601f82011690508083019250505050505091929192908060800190600280602002604051908101604052809291906000905b828210156100fc578382604002016002806020026040519081016040528092919082600260200280828437600081840152601f19601f820116905080830192505050505050815260200190600101906100a8565b50505050919291929080604001906002806020026040519081016040528092919082600260200280828437600081840152601f19601f82011690508083019250505050505091929192908060c001906006806020026040519081016040528092919082600660200280828437600081840152601f19601f82011690508083019250505050505091929192905050506101a9565b604051808215151515815260200191505060405180910390f35b60006101b3611396565b6040518060400160405280876000600281106101cb57fe5b60200201518152602001876001600281106101e257fe5b60200201518152508160000181905250604051806040016040528060405180604001604052808860006002811061021557fe5b602002015160006002811061022657fe5b602002015181526020018860006002811061023d57fe5b602002015160016002811061024e57fe5b6020020151815250815260200160405180604001604052808860016002811061027357fe5b602002015160006002811061028457fe5b602002015181526020018860016002811061029b57fe5b60200201516001600281106102ac57fe5b602002015181525081525081602001819052506040518060400160405280856000600281106102d757fe5b60200201518152602001856001600281106102ee57fe5b602002015181525081604001819052506060600667ffffffffffffffff8111801561031857600080fd5b506040519080825280602002602001820160405280156103475781602001602082028036833780820191505090505b50905060008090505b600681101561038f5784816006811061036557fe5b602002015182828151811061037657fe5b6020026020010181815250508080600101915050610350565b50600061039c82846103bc565b14156103ad576001925050506103b4565b6000925050505b949350505050565b6000807f30644e72e131a029b85045b68181585d2833e84879b9709143e1f593f000000190506103ea6113c9565b6103f26105f0565b9050806080015151600186510114610472576040517f08c379a00000000000000000000000000000000000000000000000000000000081526004018080602001828103825260128152602001807f76657269666965722d6261642d696e707574000000000000000000000000000081525060200191505060405180910390fd5b61047a611410565b6040518060400160405280600081526020016000815250905060008090505b865181101561057957838782815181106104af57fe5b60200260200101511061052a576040517f08c379a000000000000000000000000000000000000000000000000000000000815260040180806020018281038252601f8152602001807f76657269666965722d6774652d736e61726b2d7363616c61722d6669656c640081525060200191505060405180910390fd5b61056a826105658560800151600185018151811061054457fe5b60200260200101518a858151811061055857fe5b6020026020010151610c19565b610d14565b91508080600101915050610499565b5061059c81836080015160008151811061058f57fe5b6020026020010151610d14565b90506105d26105ae8660000151610e2e565b8660200151846000015185602001518587604001518b604001518960600151610ec8565b6105e257600193505050506105ea565b600093505050505b92915050565b6105f86113c9565b60405180604001604052807f2d4d9aa7e302d9df41749d5507949d05dbea33fbb16c643b22f599a2be6df2e281526020017f14bedd503c37ceb061d8ec60209fe345ce89830a19230301f076caff004d19268152508160000181905250604051806040016040528060405180604001604052807f0967032fcbf776d1afc985f88877f182d38480a653f2decaa9794cbc3bf3060c81526020017f0e187847ad4c798374d0d6732bf501847dd68bc0e071241e0213bc7fc13db7ab815250815260200160405180604001604052807f304cfbd1e08a704a99f5e847d93f8c3caafddec46b7a0d379da69a4d112346a781526020017f1739c1b1a457a8c7313123d24d2f9192f896b7c63eea05a9d57f06547ad0cec88152508152508160200181905250604051806040016040528060405180604001604052807f198e9393920d483a7260bfb731fb5d25f1aa493335a9e71297e485b7aef312c281526020017f1800deef121f1e76426a00665e5c4479674322d4f75edadd46debd5cd992f6ed815250815260200160405180604001604052807f090689d0585ff075ec9e99ad690c3395bc4b313370b38ef355acdadcd122975b81526020017f12c85ea5db8c6deb4aab71808dcb408fe3d1e7690c43d37b4ce6cc0166fa7daa8152508152508160400181905250604051806040016040528060405180604001604052807f15f838437768c9cabb091b7066458f45418121867cf388c909fe4c5fa2da44ff81526020017f1be451253dc050a5c535f9f2bca0ce11b05d71160e1f92dd08ac805465c01f2f815250815260200160405180604001604052807f01f2d20071eb54abbd9cbb4f39f6f05c2f800b56fa243d2a5360a377824b0d3981526020017f0326794b78d913b20f0da314cc0e997612f740f1a33063863cfd8e757b0fbf108152508152508160600181905250600767ffffffffffffffff811180156108bc57600080fd5b506040519080825280602002602001820160405280156108f657816020015b6108e3611410565b8152602001906001900390816108db5790505b50816080018190525060405180604001604052807f03a0ff9c0a2a108950591cfbe346588fc8ffb3ab48334382efb98d0f426d920f81526020017f10e6a884be6b1f8b2e3a58e59572e09236dcb2ff7dc2ad70b909486225d67034815250816080015160008151811061096557fe5b602002602001018190525060405180604001604052807f06123a14c0fb5dfb0ce77192555cab772ad7e8f5b80ea3242ced98329c4ef65581526020017f24c30e31932aeb4b2ad78b41db872023b4d337ca72327f8f73f942ba1a81f28c81525081608001516001815181106109d657fe5b602002602001018190525060405180604001604052807f08e36c707294e6e21f7688316927d2184b070ea45171c3b75dfe47ee223c39dc81526020017f0b4a69cfdd22028a4475714f423c46e607a5f3d76dd50ca00ec2205ce24d91378152508160800151600281518110610a4757fe5b602002602001018190525060405180604001604052807f2c0b315a14895046c763208a959cddc0a99359c1f1d243f12487d569dd8ad17481526020017f18882c1d2b9525d618c7ca5e63e93482be62ae619790e95454d1dd3813240c3c8152508160800151600381518110610ab857fe5b602002602001018190525060405180604001604052807f119d71c125605dfece2688ca809bf6ac3dd65ac9108a4061d72ccde5e9b2e44381526020017f118652f1160ffe5694ce29b93f99fc119f507cdb8743c1ec51f8ad13b6395e008152508160800151600481518110610b2957fe5b602002602001018190525060405180604001604052807f1231c5c53d6515778a7c7daa5c0fff90a991e7ab42a7a9924331d12c8510ddfb81526020017f29fd71472672701a94070d098e9f3357cc588ba2799b3b322b948ffdb0029e388152508160800151600581518110610b9a57fe5b602002602001018190525060405180604001604052807f256f9bfee87f876f3ba60a68b3ff7e0eb2838e90efa95e5d0011872358866a7d81526020017f169016d06af8bbc7006ff0ebf170b21bba78f54fb55fa0ebd3e7434d1391d1c68152508160800151600681518110610c0b57fe5b602002602001018190525090565b610c21611410565b610c2961142a565b836000015181600060038110610c3b57fe5b602002018181525050836020015181600160038110610c5657fe5b6020020181815250508281600260038110610c6d57fe5b602002018181525050600060608360808460076107d05a03fa90508060008114610c9657610c98565bfe5b5080610d0c576040517f08c379a00000000000000000000000000000000000000000000000000000000081526004018080602001828103825260128152602001807f70616972696e672d6d756c2d6661696c6564000000000000000000000000000081525060200191505060405180910390fd5b505092915050565b610d1c611410565b610d2461144c565b836000015181600060048110610d3657fe5b602002018181525050836020015181600160048110610d5157fe5b602002018181525050826000015181600260048110610d6c57fe5b602002018181525050826020015181600360048110610d8757fe5b602002018181525050600060608360c08460066107d05a03fa90508060008114610db057610db2565bfe5b5080610e26576040517f08c379a00000000000000000000000000000000000000000000000000000000081526004018080602001828103825260128152602001807f70616972696e672d6164642d6661696c6564000000000000000000000000000081525060200191505060405180910390fd5b505092915050565b610e36611410565b60007f30644e72e131a029b85045b68181585d97816a916871ca8d3c208c16d87cfd47905060008360000151148015610e73575060008360200151145b15610e97576040518060400160405280600081526020016000815250915050610ec3565b60405180604001604052808460000151815260200182856020015181610eb957fe5b0683038152509150505b919050565b60006060600467ffffffffffffffff81118015610ee457600080fd5b50604051908082528060200260200182016040528015610f1e57816020015b610f0b611410565b815260200190600190039081610f035790505b5090506060600467ffffffffffffffff81118015610f3b57600080fd5b50604051908082528060200260200182016040528015610f7557816020015b610f6261146e565b815260200190600190039081610f5a5790505b5090508a82600081518110610f8657fe5b60200260200101819052508882600181518110610f9f57fe5b60200260200101819052508682600281518110610fb857fe5b60200260200101819052508482600381518110610fd157fe5b60200260200101819052508981600081518110610fea57fe5b6020026020010181905250878160018151811061100357fe5b6020026020010181905250858160028151811061101c57fe5b6020026020010181905250838160038151811061103557fe5b602002602001018190525061104a828261105a565b9250505098975050505050505050565b600081518351146110d3576040517f08c379a00000000000000000000000000000000000000000000000000000000081526004018080602001828103825260168152602001807f70616972696e672d6c656e677468732d6661696c65640000000000000000000081525060200191505060405180910390fd5b600083519050600060068202905060608167ffffffffffffffff811180156110fa57600080fd5b506040519080825280602002602001820160405280156111295781602001602082028036833780820191505090505b50905060008090505b838110156112cf5786818151811061114657fe5b60200260200101516000015182600060068402018151811061116457fe5b60200260200101818152505086818151811061117c57fe5b60200260200101516020015182600160068402018151811061119a57fe5b6020026020010181815250508581815181106111b257fe5b6020026020010151600001516000600281106111ca57fe5b60200201518260026006840201815181106111e157fe5b6020026020010181815250508581815181106111f957fe5b60200260200101516000015160016002811061121157fe5b602002015182600360068402018151811061122857fe5b60200260200101818152505085818151811061124057fe5b60200260200101516020015160006002811061125857fe5b602002015182600460068402018151811061126f57fe5b60200260200101818152505085818151811061128757fe5b60200260200101516020015160016002811061129f57fe5b60200201518260056006840201815181106112b657fe5b6020026020010181815250508080600101915050611132565b506112d8611494565b6000602082602086026020860160086107d05a03fa905080600081146112fd576112ff565bfe5b5080611373576040517f08c379a00000000000000000000000000000000000000000000000000000000081526004018080602001828103825260158152602001807f70616972696e672d6f70636f64652d6661696c6564000000000000000000000081525060200191505060405180910390fd5b60008260006001811061138257fe5b602002015114159550505050505092915050565b60405180606001604052806113a9611410565b81526020016113b661146e565b81526020016113c3611410565b81525090565b6040518060a001604052806113dc611410565b81526020016113e961146e565b81526020016113f661146e565b815260200161140361146e565b8152602001606081525090565b604051806040016040528060008152602001600081525090565b6040518060600160405280600390602082028036833780820191505090505090565b6040518060800160405280600490602082028036833780820191505090505090565b60405180604001604052806114816114b6565b815260200161148e6114b6565b81525090565b6040518060200160405280600190602082028036833780820191505090505090565b604051806040016040528060029060208202803683378082019150509050509056fea2646970667358221220b7755d7f1e6ff1ca0a610dd0c9b770934ce2c35f5539bee3f64156fc9f245e2364736f6c634300060b0033",
  "devdoc": {
    "kind": "dev",
    "methods": {
      "verifyProof(uint256[2],uint256[2][2],uint256[2],uint256[6])": {
        "returns": {
          "r": " bool true if proof is valid"
        }
      }
    },
    "version": 1
  },
  "userdoc": {
    "kind": "user",
    "methods": {},
    "version": 1
  },
  "storageLayout": {
    "storage": [],
    "types": null
  }
}