{
  "address": "0x91FDa51817e26f174cf9F41B26ceaFdeA95F0e42",
  "abi": [
    {
      "inputs": [
        {
          "internalType": "address",
          "name": "wToken_",
          "type": "address"
        }
      ],
      "stateMutability": "nonpayable",
      "type": "constructor"
    },
    {
      "inputs": [
        {
          "internalType": "address",
          "name": "tsunami",
          "type": "address"
        },
        {
          "components": [
            {
              "components": [
                {
                  "internalType": "uint256[2]",
                  "name": "a",
                  "type": "uint256[2]"
                },
                {
                  "internalType": "uint256[2][2]",
                  "name": "b",
                  "type": "uint256[2][2]"
                },
                {
                  "internalType": "uint256[2]",
                  "name": "c",
                  "type": "uint256[2]"
                }
              ],
              "internalType": "struct DataTypes.Proof",
              "name": "proof",
              "type": "tuple"
            },
            {
              "internalType": "bytes32",
              "name": "commitment",
              "type": "bytes32"
            },
            {
              "internalType": "uint256",
              "name": "publicAmount",
              "type": "uint256"
            }
          ],
          "internalType": "struct DataTypes.CreateProofArgs",
          "name": "args",
          "type": "tuple"
        },
        {
          "internalType": "bytes",
          "name": "encryptedOutput",
          "type": "bytes"
        }
      ],
      "name": "create",
      "outputs": [],
      "stateMutability": "payable",
      "type": "function"
    },
    {
      "inputs": [
        {
          "internalType": "address",
          "name": "tsunami",
          "type": "address"
        },
        {
          "internalType": "address",
          "name": "unwrappedTokenReceiver",
          "type": "address"
        },
        {
          "components": [
            {
              "components": [
                {
                  "internalType": "uint256[2]",
                  "name": "a",
                  "type": "uint256[2]"
                },
                {
                  "internalType": "uint256[2][2]",
                  "name": "b",
                  "type": "uint256[2][2]"
                },
                {
                  "internalType": "uint256[2]",
                  "name": "c",
                  "type": "uint256[2]"
                }
              ],
              "internalType": "struct DataTypes.Proof",
              "name": "proof",
              "type": "tuple"
            },
            {
              "internalType": "bytes32",
              "name": "root",
              "type": "bytes32"
            },
            {
              "internalType": "bytes32",
              "name": "inputNullifier",
              "type": "bytes32"
            },
            {
              "internalType": "bytes32",
              "name": "outputCommitment",
              "type": "bytes32"
            },
            {
              "internalType": "bytes32",
              "name": "extDataHash",
              "type": "bytes32"
            },
            {
              "internalType": "uint256",
              "name": "publicAmount",
              "type": "uint256"
            },
            {
              "internalType": "uint256",
              "name": "stopTime",
              "type": "uint256"
            }
          ],
          "internalType": "struct DataTypes.RevokeProofArgs",
          "name": "args",
          "type": "tuple"
        },
        {
          "components": [
            {
              "internalType": "address",
              "name": "recipient",
              "type": "address"
            },
            {
              "internalType": "uint256",
              "name": "withdrawAmount",
              "type": "uint256"
            },
            {
              "internalType": "address",
              "name": "relayer",
              "type": "address"
            },
            {
              "internalType": "uint256",
              "name": "fee",
              "type": "uint256"
            },
            {
              "internalType": "bytes",
              "name": "encryptedOutput",
              "type": "bytes"
            }
          ],
          "internalType": "struct DataTypes.ExtData",
          "name": "extData",
          "type": "tuple"
        }
      ],
      "name": "revoke",
      "outputs": [],
      "stateMutability": "nonpayable",
      "type": "function"
    },
    {
      "inputs": [],
      "name": "wToken",
      "outputs": [
        {
          "internalType": "contract IWToken",
          "name": "",
          "type": "address"
        }
      ],
      "stateMutability": "view",
      "type": "function"
    },
    {
      "inputs": [
        {
          "internalType": "address",
          "name": "tsunami",
          "type": "address"
        },
        {
          "internalType": "address",
          "name": "unwrappedTokenReceiver",
          "type": "address"
        },
        {
          "components": [
            {
              "components": [
                {
                  "internalType": "uint256[2]",
                  "name": "a",
                  "type": "uint256[2]"
                },
                {
                  "internalType": "uint256[2][2]",
                  "name": "b",
                  "type": "uint256[2][2]"
                },
                {
                  "internalType": "uint256[2]",
                  "name": "c",
                  "type": "uint256[2]"
                }
              ],
              "internalType": "struct DataTypes.Proof",
              "name": "proof",
              "type": "tuple"
            },
            {
              "internalType": "bytes32",
              "name": "root",
              "type": "bytes32"
            },
            {
              "internalType": "bytes32",
              "name": "inputNullifier",
              "type": "bytes32"
            },
            {
              "internalType": "bytes32",
              "name": "outputCommitment",
              "type": "bytes32"
            },
            {
              "internalType": "bytes32",
              "name": "extDataHash",
              "type": "bytes32"
            },
            {
              "internalType": "uint256",
              "name": "publicAmount",
              "type": "uint256"
            },
            {
              "internalType": "uint256",
              "name": "checkpointTime",
              "type": "uint256"
            }
          ],
          "internalType": "struct DataTypes.WithdrawProofArgs",
          "name": "args",
          "type": "tuple"
        },
        {
          "components": [
            {
              "internalType": "address",
              "name": "recipient",
              "type": "address"
            },
            {
              "internalType": "uint256",
              "name": "withdrawAmount",
              "type": "uint256"
            },
            {
              "internalType": "address",
              "name": "relayer",
              "type": "address"
            },
            {
              "internalType": "uint256",
              "name": "fee",
              "type": "uint256"
            },
            {
              "internalType": "bytes",
              "name": "encryptedOutput",
              "type": "bytes"
            }
          ],
          "internalType": "struct DataTypes.ExtData",
          "name": "extData",
          "type": "tuple"
        }
      ],
      "name": "withdraw",
      "outputs": [],
      "stateMutability": "nonpayable",
      "type": "function"
    },
    {
      "stateMutability": "payable",
      "type": "receive"
    }
  ],
  "transactionHash": "0xfaf5c78d145d2a41eace3fc911e85018c390f99ef59ab54d48b9b49ba7dc96ea",
  "args": [
    "0xfbe7a8FFD4EcB1678152bafb4915F1e5869178b0"
  ],
  "numDeployments": 1,
  "solcInputHash": "d72fc06c07d5e910b2f48478cc660b1b",
  "bytecode": "0x60a06040523480156200001157600080fd5b50604051620016ce380380620016ce8339818101604052810190620000379190620000dc565b8073ffffffffffffffffffffffffffffffffffffffff1660808173ffffffffffffffffffffffffffffffffffffffff1681525050506200010e565b600080fd5b600073ffffffffffffffffffffffffffffffffffffffff82169050919050565b6000620000a48262000077565b9050919050565b620000b68162000097565b8114620000c257600080fd5b50565b600081519050620000d681620000ab565b92915050565b600060208284031215620000f557620000f462000072565b5b60006200010584828501620000c5565b91505092915050565b60805161156d620001616000396000818160ea01528181610155015281816101d6015281816103e00152818161041c0152818161049f015281816106310152818161066d01526106f0015261156d6000f3fe6080604052600436106100435760003560e01c80630babd8641461004f578063521850cd1461007a578063844b031a14610096578063c92274e1146100bf5761004a565b3661004a57005b600080fd5b34801561005b57600080fd5b506100646100e8565b6040516100719190610909565b60405180910390f35b610094600480360381019061008f91906109f6565b61010c565b005b3480156100a257600080fd5b506100bd60048036038101906100b89190610aab565b6102e8565b005b3480156100cb57600080fd5b506100e660048036038101906100e19190610b50565b610539565b005b7f000000000000000000000000000000000000000000000000000000000000000081565b8261012001353414610153576040517f08c379a000000000000000000000000000000000000000000000000000000000815260040161014a90610c32565b60405180910390fd5b7f000000000000000000000000000000000000000000000000000000000000000073ffffffffffffffffffffffffffffffffffffffff1663d0e30db0346040518263ffffffff1660e01b81526004016000604051808303818588803b1580156101bb57600080fd5b505af11580156101cf573d6000803e3d6000fd5b50505050507f000000000000000000000000000000000000000000000000000000000000000073ffffffffffffffffffffffffffffffffffffffff1663095ea7b385346040518363ffffffff1660e01b815260040161022f929190610c7a565b6020604051808303816000875af115801561024e573d6000803e3d6000fd5b505050506040513d601f19601f820116820180604052508101906102729190610cdb565b508373ffffffffffffffffffffffffffffffffffffffff1663386dc0838484846040518463ffffffff1660e01b81526004016102b093929190610fac565b600060405180830381600087803b1580156102ca57600080fd5b505af11580156102de573d6000803e3d6000fd5b5050505050505050565b3073ffffffffffffffffffffffffffffffffffffffff168160000160208101906103129190610fe0565b73ffffffffffffffffffffffffffffffffffffffff1614610368576040517f08c379a000000000000000000000000000000000000000000000000000000000815260040161035f90611059565b60405180910390fd5b8373ffffffffffffffffffffffffffffffffffffffff1663a452eac383836040518363ffffffff1660e01b81526004016103a39291906112c2565b600060405180830381600087803b1580156103bd57600080fd5b505af11580156103d1573d6000803e3d6000fd5b505050506000816020013590507f000000000000000000000000000000000000000000000000000000000000000073ffffffffffffffffffffffffffffffffffffffff1663095ea7b37f0000000000000000000000000000000000000000000000000000000000000000836040518363ffffffff1660e01b8152600401610459929190610c7a565b6020604051808303816000875af1158015610478573d6000803e3d6000fd5b505050506040513d601f19601f8201168201806040525081019061049c9190610cdb565b507f000000000000000000000000000000000000000000000000000000000000000073ffffffffffffffffffffffffffffffffffffffff16632e1a7d4d826040518263ffffffff1660e01b81526004016104f691906112f4565b600060405180830381600087803b15801561051057600080fd5b505af1158015610524573d6000803e3d6000fd5b50505050610532848261078a565b5050505050565b3073ffffffffffffffffffffffffffffffffffffffff168160000160208101906105639190610fe0565b73ffffffffffffffffffffffffffffffffffffffff16146105b9576040517f08c379a00000000000000000000000000000000000000000000000000000000081526004016105b090611059565b60405180910390fd5b8373ffffffffffffffffffffffffffffffffffffffff1663e1faa14683836040518363ffffffff1660e01b81526004016105f49291906113e2565b600060405180830381600087803b15801561060e57600080fd5b505af1158015610622573d6000803e3d6000fd5b505050506000816020013590507f000000000000000000000000000000000000000000000000000000000000000073ffffffffffffffffffffffffffffffffffffffff1663095ea7b37f0000000000000000000000000000000000000000000000000000000000000000836040518363ffffffff1660e01b81526004016106aa929190610c7a565b6020604051808303816000875af11580156106c9573d6000803e3d6000fd5b505050506040513d601f19601f820116820180604052508101906106ed9190610cdb565b507f000000000000000000000000000000000000000000000000000000000000000073ffffffffffffffffffffffffffffffffffffffff16632e1a7d4d826040518263ffffffff1660e01b815260040161074791906112f4565b600060405180830381600087803b15801561076157600080fd5b505af1158015610775573d6000803e3d6000fd5b50505050610783848261078a565b5050505050565b60008273ffffffffffffffffffffffffffffffffffffffff1682600067ffffffffffffffff8111156107bf576107be611414565b5b6040519080825280601f01601f1916602001820160405280156107f15781602001600182028036833780820191505090505b506040516107ff91906114b4565b60006040518083038185875af1925050503d806000811461083c576040519150601f19603f3d011682016040523d82523d6000602084013e610841565b606091505b5050905080610885576040517f08c379a000000000000000000000000000000000000000000000000000000000815260040161087c90611517565b60405180910390fd5b505050565b600073ffffffffffffffffffffffffffffffffffffffff82169050919050565b6000819050919050565b60006108cf6108ca6108c58461088a565b6108aa565b61088a565b9050919050565b60006108e1826108b4565b9050919050565b60006108f3826108d6565b9050919050565b610903816108e8565b82525050565b600060208201905061091e60008301846108fa565b92915050565b600080fd5b600080fd5b60006109398261088a565b9050919050565b6109498161092e565b811461095457600080fd5b50565b60008135905061096681610940565b92915050565b600080fd5b600061014082840312156109885761098761096c565b5b81905092915050565b600080fd5b600080fd5b600080fd5b60008083601f8401126109b6576109b5610991565b5b8235905067ffffffffffffffff8111156109d3576109d2610996565b5b6020830191508360018202830111156109ef576109ee61099b565b5b9250929050565b6000806000806101808587031215610a1157610a10610924565b5b6000610a1f87828801610957565b9450506020610a3087828801610971565b93505061016085013567ffffffffffffffff811115610a5257610a51610929565b5b610a5e878288016109a0565b925092505092959194509250565b60006101c08284031215610a8357610a8261096c565b5b81905092915050565b600060a08284031215610aa257610aa161096c565b5b81905092915050565b6000806000806102208587031215610ac657610ac5610924565b5b6000610ad487828801610957565b9450506020610ae587828801610957565b9350506040610af687828801610a6c565b92505061020085013567ffffffffffffffff811115610b1857610b17610929565b5b610b2487828801610a8c565b91505092959194509250565b60006101c08284031215610b4757610b4661096c565b5b81905092915050565b6000806000806102208587031215610b6b57610b6a610924565b5b6000610b7987828801610957565b9450506020610b8a87828801610957565b9350506040610b9b87828801610b30565b92505061020085013567ffffffffffffffff811115610bbd57610bbc610929565b5b610bc987828801610a8c565b91505092959194509250565b600082825260208201905092915050565b7f57726f6e6720616d6f756e742073656e74000000000000000000000000000000600082015250565b6000610c1c601183610bd5565b9150610c2782610be6565b602082019050919050565b60006020820190508181036000830152610c4b81610c0f565b9050919050565b610c5b8161092e565b82525050565b6000819050919050565b610c7481610c61565b82525050565b6000604082019050610c8f6000830185610c52565b610c9c6020830184610c6b565b9392505050565b60008115159050919050565b610cb881610ca3565b8114610cc357600080fd5b50565b600081519050610cd581610caf565b92915050565b600060208284031215610cf157610cf0610924565b5b6000610cff84828501610cc6565b91505092915050565b600082905092915050565b600082905092915050565b82818337505050565b610d3360408383610d1e565b5050565b600082905092915050565b600060029050919050565b600081905092915050565b6000819050919050565b6000610d6e8383610d27565b60408301905092915050565b6000604082019050919050565b610d9081610d42565b610d9a8184610d4d565b9250610da582610d58565b8060005b83811015610dde57610dbb8284610d13565b610dc58782610d62565b9650610dd083610d7a565b925050600181019050610da9565b505050505050565b6101008201610df86000830183610d13565b610e056000850182610d27565b50610e136040830183610d37565b610e206040850182610d87565b50610e2e60c0830183610d13565b610e3b60c0850182610d27565b50505050565b6000819050919050565b610e5481610e41565b8114610e5f57600080fd5b50565b600081359050610e7181610e4b565b92915050565b6000610e866020840184610e62565b905092915050565b610e9781610e41565b82525050565b610ea681610c61565b8114610eb157600080fd5b50565b600081359050610ec381610e9d565b92915050565b6000610ed86020840184610eb4565b905092915050565b610ee981610c61565b82525050565b6101408201610f016000830183610d08565b610f0e6000850182610de6565b50610f1d610100830183610e77565b610f2b610100850182610e8e565b50610f3a610120830183610ec9565b610f48610120850182610ee0565b50505050565b600082825260208201905092915050565b82818337600083830152505050565b6000601f19601f8301169050919050565b6000610f8b8385610f4e565b9350610f98838584610f5f565b610fa183610f6e565b840190509392505050565b600061016082019050610fc26000830186610eef565b818103610140830152610fd6818486610f7f565b9050949350505050565b600060208284031215610ff657610ff5610924565b5b600061100484828501610957565b91505092915050565b7f5265717569726520726563697069656e7420746f206265206761746577617900600082015250565b6000611043601f83610bd5565b915061104e8261100d565b602082019050919050565b6000602082019050818103600083015261107281611036565b9050919050565b6101c0820161108b6000830183610d08565b6110986000850182610de6565b506110a7610100830183610e77565b6110b5610100850182610e8e565b506110c4610120830183610e77565b6110d2610120850182610e8e565b506110e1610140830183610e77565b6110ef610140850182610e8e565b506110fe610160830183610e77565b61110c610160850182610e8e565b5061111b610180830183610ec9565b611129610180850182610ee0565b506111386101a0830183610ec9565b6111466101a0850182610ee0565b50505050565b600061115b6020840184610957565b905092915050565b61116c8161092e565b82525050565b600080fd5b600080fd5b600080fd5b6000808335600160200384360303811261119e5761119d61117c565b5b83810192508235915060208301925067ffffffffffffffff8211156111c6576111c5611172565b5b6001820236038313156111dc576111db611177565b5b509250929050565b600082825260208201905092915050565b600061120183856111e4565b935061120e838584610f5f565b61121783610f6e565b840190509392505050565b600060a08301611235600084018461114c565b6112426000860182611163565b506112506020840184610ec9565b61125d6020860182610ee0565b5061126b604084018461114c565b6112786040860182611163565b506112866060840184610ec9565b6112936060860182610ee0565b506112a16080840184611181565b85830360808701526112b48382846111f5565b925050508091505092915050565b60006101e0820190506112d86000830185611079565b8181036101c08301526112eb8184611222565b90509392505050565b60006020820190506113096000830184610c6b565b92915050565b6101c082016113216000830183610d08565b61132e6000850182610de6565b5061133d610100830183610e77565b61134b610100850182610e8e565b5061135a610120830183610e77565b611368610120850182610e8e565b50611377610140830183610e77565b611385610140850182610e8e565b50611394610160830183610e77565b6113a2610160850182610e8e565b506113b1610180830183610ec9565b6113bf610180850182610ee0565b506113ce6101a0830183610ec9565b6113dc6101a0850182610ee0565b50505050565b60006101e0820190506113f8600083018561130f565b8181036101c083015261140b8184611222565b90509392505050565b7f4e487b7100000000000000000000000000000000000000000000000000000000600052604160045260246000fd5b600081519050919050565b600081905092915050565b60005b8381101561147757808201518184015260208101905061145c565b60008484015250505050565b600061148e82611443565b611498818561144e565b93506114a8818560208601611459565b80840191505092915050565b60006114c08284611483565b915081905092915050565b7f4554485f5452414e534645525f4641494c454400000000000000000000000000600082015250565b6000611501601383610bd5565b915061150c826114cb565b602082019050919050565b60006020820190508181036000830152611530816114f4565b905091905056fea2646970667358221220e6150706cefab59a8d960aa2fe9b384720cedf8a7b7e6b0a6bd8090f09100e2864736f6c63430008110033",
  "devdoc": {
    "kind": "dev",
    "methods": {},
    "version": 1
  },
  "userdoc": {
    "kind": "user",
    "methods": {},
    "version": 1
  },
  "storageLayout": {
    "storage": [],
    "types": null
  }
}